:100000000C946C010C9489010C9489010C94890165
:100010000C9489010C94CC010C9489010C948901F5
:100020000C9489010C9489010C9489010C94890128
:100030000C9489010C9489010C9489010C94890118
:100040000C94E6090C9489010C9489010C948901A3
:100050000C94DF060C949D060C9489010C94890184
:100060000C9489010C9489010C9489010C948901E8
:100070000C9489010C9489010C9489015072657368
:1000800073202772272F27522720746F20726573E1
:10009000746172742C206F72202765272F274527E3
:1000A00020746F20657869740047414D45204F5694
:1000B000455200456C61707365642074696D653AE2
:1000C00020256C7520730043535345323031302F57
:1000D000373230312050726F6A6563742062792044
:1000E000567520486169204D696E68204275692007
:1000F0002D2034373738393134300060381F3F3FD6
:10010000637EFE60BCB1B16166C3C060B63FBF61D3
:100110007CC3FE60B3B1B16166C306E0B1313F3F5D
:10012000637EFEF0F000F0F0F0F000F00000F00070
:1001300000F000F00000F00000F000F0F0F0F0003F
:10014000F0F0000000000000000000F0F0F0F0F01F
:10015000000000F0000000F0000000F0000000F0DF
:10016000000000F0F0F0F0F00000000000000000DF
:10017000000000F0F0F0F0F0F0F000000000F000FF
:100180000000000000F000F0000000F0F0000000AF
:10019000F000000000000000000000F0F0F0F0F0BF
:1001A000000000F0000000F0000000F0000000F08F
:1001B000000000F0F0F0F0F000000000000000008F
:1001C000000000F0F0F0F0F0F0F000F00000F000BF
:1001D000000000F00000F000000000F0F0F0F0007F
:1001E0000000000000000000000000F0F0F000F04F
:1001F000000000F000F000F0000000F000F000F05F
:10020000000000F0F0F0F0F000000000000000003E
:10021000000000F0F0F0F0F000000000000000F03E
:1002200000000000000000F0000000F0F0F0F0F02E
:1002300000000000000000000000000000000000BE
:100240000000003C3C3C3C3C3C00003C3C00003C92
:100250003C00003C003C3C003C00003C003C3C00BE
:100260003C00003C3C00003C3C00003C3C3C3C3C36
:100270003C00000000001000100000100000100002
:1002800010000000100000100010100000101000FE
:1002900010101000100000000010101000000000EE
:1002A000000000000000000000000000000000004E
:1002B0000000001B5B3F32356C001B5B25646D004A
:1002C0001B5B4B001B5B324A001B5B306D001B5BF2
:1002D00025643B256448000011241FBECFEFD8E001
:1002E000DEBFCDBF11E0A0E0B1E0E4E3FDE102C07C
:1002F00005900D92A03EB107D9F723E0A0EEB1E042
:1003000001C01D92A439B207E1F70E940D060C94BA
:10031000980E0C9400001092E0011092E501E8E6BE
:10032000F0E08081826080838BB382608BBBECE6DF
:10033000F0E080818F60808308958091E0018823C0
:10034000F9F08091E1015FB75078F89491E00BC02B
:10035000292F30E0F901EF51FE4F4081F901E052C1
:10036000FE4F40839F5F2091E001921788F39091A8
:10037000E00191509093E001552319F0789408958D
:100380008FEF08958FB7F8941092E0011092E50175
:1003900088230CF4789408951F920F920FB60F9251
:1003A00011242F933F934F938F939F93EF93FF933A
:1003B00043B14F7080E024C09091E0019430F8F494
:1003C000242F30E0082E02C0359527950A94E2F7D5
:1003D00020FF15C02091E50130E0082E02C03595C0
:1003E00027950A94E2F720FD0AC0E091E00191E030
:1003F0009E0F9093E001F0E0EF51FE4F80838F5FFE
:100400008430D0F24093E501FF91EF919F918F915D
:100410004F913F912F910F900FBE0F901F90189505
:100420000F931F93CF93DF93082F10E0C62FD0E0D8
:10043000F801E295F295F07FFE27E07FFE27E75175
:10044000FE4FEC0FFD1F908197709230A9F128F4B8
:10045000992351F09130E1F06AC0943009F440C022
:10046000963009F451C063C040E00E943804BE01D8
:10047000605E7F4F83E190E0801B910B0E947B09BF
:1004800088E20E94AA0980E290E00E94C20B4FC05D
:100490004FEF0E943804BE01605E7F4F83E190E021
:1004A000801B910B0E947B098BE20E94AA0980E2CB
:1004B00090E00E94C20B3BC04CE30E943804BE0196
:1004C000605E7F4F83E190E0801B910B0E947B096F
:1004D0008DE20E94AA0980E290E00E94C20B27C030
:1004E0004FE00E943804BE01605E7F4F83E190E0E0
:1004F000801B910B0E947B0989E20E94AA0980E27D
:1005000090E00E94C20B13C040EF0E943804BE016D
:10051000605E7F4F83E190E0801B910B0E947B091E
:100520008AE20E94AA0980E290E00E94C20BDF9159
:10053000CF911F910F910895CF93DF9385E0809322
:10054000E80182E08093E7011092E601A0E027C075
:100550008A2F90E027E030E0281B390B462F50E02F
:10056000FC01E295F295F07FFE27E07FFE27E85E32
:10057000FE4FE40FF51F7081C90182959295907F1F
:100580009827807F982787519E4FFC01E40FF51F25
:1005900070836F5F01C060E06031D0F2AF5FA83060
:1005A000D0F3D0E00AC06C2F8D2F0E941002CF5FD5
:1005B00001C0C0E0C031B8F3DF5FD830D0F3DF91C5
:1005C000CF9108959091E60181E089278093E6011B
:1005D0008823F1F040E16091E7018091E8010E94F9
:1005E00038046091E70170E0605E7F4F9091E80110
:1005F00023E130E0A901491B5109CA010E947B098E
:100600008EE20E94AA0980E290E00E94C20B089547
:100610006091E7018091E8010E9410020895BF9265
:10062000CF92DF92EF92FF920F931F93CF93DF93BE
:100630007091E801272F280FB090E7019B2D960FAE
:1006400028301CF4222324F402C020E001C027E05B
:1006500090311CF4992324F402C090E001C09FE083
:10066000422F022E000C550BA92F092E000CBB0B9C
:10067000FA01E295F295F07FFE27E07FFE27E75131
:10068000FE4FEA0FFB1F3081F22ED82FD20FE92E3A
:10069000C62FC90FD8301CF4DD2324F402C0D0E0EB
:1006A00001C0D7E0C0311CF4CC2324F402C0C0E068
:1006B00001C0CFE00D2F0D2E000C110BCC2E0C2EF7
:1006C000000CDD08F801E295F295F07FFE27E07F4F
:1006D000FE27E751FE4FEC0DFD1D80813130C9F43E
:1006E00060E270E085E090E00E947B090E94A10931
:1006F0000E94010B63E070E00E94130AFC01EE0F00
:10070000FF1FEC5FFE4F808191810E94C90B80E04A
:1007100070C0323019F0363009F059C0813009F418
:1007200063C0823009F462C0863009F461C084304D
:1007300071F402951295107F1027007F1027075142
:100740001E4FF801EC0DFD1D86E080830DC0029563
:100750001295107F1027007F102707511E4FF801B8
:10076000EC0DFD1D82E08083363069F44295529590
:10077000507F5427407F542747515E4FA40FB51F29
:1007800084E08C9324C042955295507F5427407F3B
:10079000542747515E4FA40FB51F1C926B2D872F16
:1007A0000E94100281E08093E6010E94E202F09232
:1007B000E801E092E7016E2D8F2D0E9410026C2F50
:1007C0008D2F0E9410020E94E20281E012C081E09F
:1007D0008093E6010E94E202F092E801E092E701D4
:1007E0000E94E20281E005C080E003C080E001C019
:1007F00080E0DF91CF911F910F91FF90EF90DF90FC
:10080000CF90BF90089540E050E017C0FA01E29504
:10081000F295F07FFE27E07FFE27E751FE4FE80FBD
:10082000F91F2081243071F0019602C080E090E031
:10083000803191055CF34F5F5F4F48305105B4F351
:1008400081E0089580E008958091E8016091E701DA
:1008500090E1899FF0011124E751FE4FE60FF11D51
:1008600010820E941002089580E80E948507089572
:100870001F93CF93DF936031B0F48830A0F4142F2E
:10088000D62FC82F81E00E94B1078C2F877020E1FE
:10089000829FC00111246D2F6F70862B0E94B107BB
:1008A000812F0E94B107DF91CF911F9108950F937F
:1008B0001F93CF938031A0F48B01C82F83E00E9457
:1008C000B1078C2F8F700E94B107C0E007C0F801FC
:1008D000EC0FF11D80810E94B107CF5FC830B8F3E3
:1008E000CF911F910F91089584E00E94B10782E09B
:1008F0000E94B10708958FE00E94B10708950E94F9
:1009000034040E948B0140E060E07BE480E090E0F2
:100910000E9432070E94C0090E940B0A0E94100A1E
:10092000789408950E94B7090E948F090E9498093F
:1009300065E083E00E94550965E070E08BE090E09F
:100940000E947B0987EC90E09F938F930E949C0B01
:100950000E94A0080E94C2010F900F900E949D016A
:100960008F3F99F40E947907882361F080918E036C
:1009700090918F030E94220B8337910531F08335CC
:10098000910519F00E94AA08E9CF08950E94B709BD
:100990000E9498090E949C020E94C2010E94800746
:1009A00008954F925F926F927F928F929F92AF9233
:1009B000BF92CF92DF92EF92FF92CF93DF9300D05E
:1009C00000D01F92CDB7DEB70E94D6094B015C0163
:1009D0000E94D6092B013C0119821A821B821C82BB
:1009E000C7C00E949D018D83811109C061E00E94F2
:1009F0000F03882321F00E94D6094B015C018D81F1
:100A0000813051F460E08FEF0E940F03882321F0C2
:100A10000E94D6094B015C019D81923051F460E047
:100A200081E00E940F03882321F00E94D6094B0128
:100A30005C01AD81A33051F46FEF80E00E940F03A1
:100A4000882321F00E94D6094B015C010E9479079E
:100A5000882309F449C080918E0390918F030E94EE
:100A6000220B8337910519F08335910559F460E025
:100A70008FEF0E940F038823B9F10E94D6094B0122
:100A80005C0132C08737910519F08735910559F41B
:100A900060E081E00E940F03882331F10E94D609B3
:100AA0004B015C0121C08136910519F0813491051B
:100AB00059F46FEF80E00E940F038823A9F00E9491
:100AC000D6094B015C0110C08436910519F08434BD
:100AD000910551F461E080E00E940F03882321F02A
:100AE0000E94D6094B015C010E94D6096B017C0172
:100AF000D501C40188539F4FAF4FBF4FC816D906C9
:100B0000EA06FB0620F00E94E20246015701C701F7
:100B1000B601641975098609970928EE33E040E0AB
:100B200050E00E94270A69017A0189819A81AB818C
:100B3000BC8182179307A407B507D1F060E270E08B
:100B400088E090E00E947B09FF92EF92DF92CF92C3
:100B500083EB90E09F938F930E949C0B0F900F90DC
:100B60000F900F900F900F90C982DA82EB82FC8277
:100B70000E940304882309F434CF0E9424040F90B8
:100B80000F900F900F900F90DF91CF91FF90EF900B
:100B9000DF90CF90BF90AF909F908F907F906F909D
:100BA0005F904F9008956AE070E08EE090E00E94C0
:100BB0007B0989EA90E09F938F930E949C0B6AE0E7
:100BC00070E08FE090E00E947B098CE790E09F93BB
:100BD0008F930E949C0B0F900F900F900F900E948C
:100BE0007907882339F080918E0390918F030E94BA
:100BF000220B02C08FEF9FEF0E94110B82359105EF
:100C000031F40E94C6040E94D1040E94D3058534A9
:100C1000910529F70E940D06E2CF0E947F040E94F1
:100C200092040E94C6040E94D1040E94D305CF936F
:100C3000C82F8A3019F48DE00E9417069FB790786C
:100C400002C0992329F180917B028F3FD1F3F89460
:100C5000E0917A0281E08E0F80937A02F0E0E4580E
:100C6000FD4FC08380917B028F5F80937B028091D8
:100C70007A028F3F11F410927A02E1ECF0E0808169
:100C800080628083992339F0789480E090E005C0F9
:100C900081E090E002C080E090E0CF9108958091E3
:100CA0008D038823E1F32FB72078F89480917B039C
:100CB00030918D0390E0831B91095AF4E0917B03FE
:100CC00080918D03F0E0E81BF109E457FC4F80812F
:100CD0000AC0E0917B0380918D03F0E0E81BF109ED
:100CE000E458FC4F808190918D03915090938D0337
:100CF000222309F0789490916A029B31B1F490918B
:100D000069029B3591F4823449F018F4813461F022
:100D10000CC0833429F0843429F007C083E705C070
:100D200084E603C081E601C087E790916902909351
:100D30006A028093690290E008951F920F920FB6A5
:100D40000F9211242F938F939F93EF93FF93809192
:100D50007B02882329F180917A0220917B0290E026
:100D6000821B91095AF4E0917A0280917B02F0E0B3
:100D7000E81BF109E558FC4F90810AC0E0917A0226
:100D800080917B02F0E0E81BF109E458FD4F90816F
:100D900080917B02815080937B029093C60005C0B6
:100DA000E1ECF0E080818F7D8083FF91EF919F9156
:100DB0008F912F910F900FBE0F901F9018951F923B
:100DC0000F920FB60F9211242F933F934F935F937F
:100DD0006F937F938F939F93AF93BF93CF93EF9333
:100DE000FF93C091C60080916B02882349F08091E7
:100DF0007B028F3F29F060E070E08C2F0E94170685
:100E000080918D03803120F081E080938C0318C0A5
:100E1000CD3009F4CAE0E0917B0381E08E0F80932E
:100E20007B03F0E0E458FC4FC08380918D038F5F1B
:100E300080938D0380917B03803111F410927B03AA
:100E4000FF91EF91CF91BF91AF919F918F917F9142
:100E50006F915F914F913F912F910F900FBE0F9027
:100E60001F90189510927A0210927B0210927B03C9
:100E700010928D0310928C0340936B02DC01CB0126
:100E8000880F991FAA1FBB1F880F991FAA1FBB1F7E
:100E90009C01AD01220F331F441F551F60E072E11A
:100EA0008AE790E00E94490ABA01A9014F5F5F4FAB
:100EB0006F4F7F4FDB01CA011AF40196A11DB11DCE
:100EC000B595A7959795879501979093C5008093C1
:100ED000C400E1ECF0E088E1808380818068808359
:100EE000EEE8F3E08AE091E093838283918380834C
:100EF000089590918D0381E0911101C080E00895E3
:100F000010927B0310928D03089594B1906B94B965
:100F100095B1906195B990E59CBD883021F0803203
:100F200011F0823019F491E09DBD01C01DBC8032EA
:100F300069F028F4883071F0803161F00EC080349F
:100F400029F0803851F48CB581608CBD8CB58260FD
:100F50008CBD03C08CB581608CBD85B18F7E85B999
:100F600008958EBD0DB407FEFDCF8EB508951F9375
:100F7000CF93DF93CDB7DEB728970FB6F894DEBFD7
:100F80000FBECDBF10E017C0612F70E0660F771F56
:100F9000660F771F660F771F6D5D7E4F48E050E04C
:100FA000CE0101960E94190BBE016F5F7F4F812F0A
:100FB0000E9457041F5F103138F328960FB6F8943B
:100FC000DEBF0FBECDBFDF91CF911F910895CF93AC
:100FD000DF93CDB7DEB728970FB6F894DEBF0FBE0C
:100FE000CDBF0E94740460916C0270E0660F771FA1
:100FF000660F771F660F771F6D5D7E4F48E050E0EC
:10100000CE0101960E94190BBE016F5F7F4F8FE0EA
:101010000E94570440916C0250E04F5F5F4F9A016D
:1010200036952795ABE7B4E10E94680A96958795B7
:1010300062E3689F9001699F300D1124CA01821BF1
:10104000930B80936C02803129F48091750281604A
:101050008093750228960FB6F894DEBF0FBECDBF01
:10106000DF91CF910895EF92FF920F931F93CF934B
:10107000DF93CDB7DEB728970FB6F894DEBF0FBE6B
:10108000CDBFF62EE42E682F70E0660F771F660F37
:10109000771F660F771F65507F4F48E050E0CE0105
:1010A00001960E94190B0FE310E00F191109298115
:1010B0003A814B815C816D817E818F8198850E9410
:1010C000790A217030E040E050E060E070E080E0BC
:1010D00090E0A0E00E94950AC1F0E1101BC010E072
:1010E0000FC0812F90E0FC01E752FE4F20812F15A9
:1010F00030F0FC01EE52FE4F80810E94AA091F5F72
:10110000173078F3EE24E39405C0EE2019F00E9426
:101110008F09E12C609190037091910380E290E03F
:101120000E94600B8E2D28960FB6F894DEBF0FBE7E
:10113000CDBFDF91CF911F910F91FF90EF90089558
:101140000E947B040E94B7078091750281608093A2
:1011500075020895CF92DF92EF92FF920E94D60916
:101160006B017C018091750280FF16C0C0927102F4
:10117000D0927202E0927302F0927402C0926D02F9
:10118000D0926E02E0926F02F092700290E1909322
:101190006C02887F8093750280916C02803109F027
:1011A00064C08091710290917202A0917302B0911B
:1011B0007402AC01BD014053584F6F4F7F4F4C1527
:1011C0005D056E057F0558F40E94E707C0926D0229
:1011D000D0926E02E0926F02F092700261C0209194
:1011E0007502322F327021FD19C088519C4FAF4FCC
:1011F000BF4F8C159D05AE05BF0580F40E94B70753
:1012000080917502826080937502C0926D02D092C7
:101210006E02E0926F02F092700242C0311140C043
:1012200080916D0290916E02A0916F02B091700258
:101230008C599F4FAF4FBF4F8C159D05AE05BF0515
:1012400078F584E028272093750222FF03C00E94CE
:101250007B0402C00E94B707C0926D02D0926E025A
:10126000E0926F02F09270021BC080916D0290912B
:101270006E02A0916F02B091700288539F4FAF4FE2
:10128000BF4F8C159D05AE05BF0550F40E94E707C2
:10129000C0926D02D0926E02E0926F02F0927002E4
:1012A000FF90EF90DF90CF900895FF920F931F93E0
:1012B000CF93DF93F82E062F10E0D0E014C0602FFC
:1012C00070E08F2D90E0810F911D0E947B09C0E09E
:1012D00007C04D2F6C2F812F0E943308D82FCF5F6E
:1012E000C034B8F31F5F153050F3DF91CF911F91D9
:1012F0000F91FF9008956F5F7F4F7F936F930196DB
:101300009F938F938EEC92E09F938F930E949C0B00
:101310000F900F900F900F900F900F90089589EC01
:1013200092E09F938F930E949C0B0F900F900895D3
:1013300084EC92E09F938F930E949C0B0F900F90F0
:10134000089580EC92E09F938F930E949C0B0F90E6
:101350000F9008951F928F938AEB92E09F938F9343
:101360000E949C0B0F900F900F900F90089583EBAD
:1013700092E09F938F930E949C0B0F900F90089583
:1013800010927602109277021092780210927902EF
:1013900016BC8CE787BD92E094BD83E085BDEEE688
:1013A000F0E080818260808395BB08958FB7282FFD
:1013B0002078F8946091760270917702809178029B
:1013C00090917902222309F0789408951F920F9248
:1013D0000FB60F9211248F939F93AF93BF93809179
:1013E000760290917702A0917802B09179020196ED
:1013F000A11DB11D8093760290937702A09378028D
:10140000B0937902BF91AF919F918F910F900FBED2
:101410000F901F90189510928500109284000895E7
:101420001092B200089597FB072E16F4009407D08F
:1014300077FD09D00E94A10A07FC05D03EF49095E3
:1014400081959F4F0895709561957F4F0895A1E212
:101450001A2EAA1BBB1BFD010DC0AA1FBB1FEE1F2E
:10146000FF1FA217B307E407F50720F0A21BB30B79
:10147000E40BF50B661F771F881F991F1A9469F7F5
:1014800060957095809590959B01AC01BD01CF0151
:101490000895052E97FB1EF400940E94600A57FDE4
:1014A00007D00E94270A07FC03D04EF40C94600A70
:1014B00050954095309521953F4F4F4F5F4F089580
:1014C00090958095709561957F4F8F4F9F4F0895B0
:1014D000A29FB001B39FC001A39F700D811D112475
:1014E000911DB29F700D811D1124911D089597FBD0
:1014F00010F8169400080F93083098F00850232F26
:10150000342F452F562F672F782F892F902DF4CF0A
:10151000059497958795779567955795479537954E
:1015200027950A95AAF70F9108950024A7FD009426
:101530002A173005400550056005700580059005A7
:101540000895AA1BBB1B51E107C0AA1FBB1FA6170A
:10155000B70710F0A61BB70B881F991F5A95A9F75C
:1015600080959095BC01CD0108958F929F92AF9286
:10157000BF92CF92DF92EF92FF92CF93DF93EC0175
:10158000688179818A819B81611571058105910549
:1015900021F464E279ED8BE597E02DE133EF41E052
:1015A00050E00E94490A49015A019B01AC01A7EA97
:1015B000B1E40E944E0E6B017C01ACEEB4EFA501CC
:1015C00094010E945C0EDC01CB018C0D9D1DAE1DB3
:1015D000BF1DB7FF03C00197A109B0488883998355
:1015E000AA83BB839F77DF91CF91FF90EF90DF902D
:1015F000CF90BF90AF909F908F9008950E94B50AB2
:10160000089580E091E00E94B50A0895A0E0B0E05E
:101610008093000190930101A0930201B093030114
:1016200008959111089581568A5108F48052855881
:101630000895FB01DC0102C005900D92415050401D
:10164000D8F70895CF93DF93EC012B8120FF33C0AF
:1016500026FF0AC02F7B2B838E819F8101969F835B
:101660008E838A8190E029C022FF0FC0E881F98132
:101670008081082E000C990B009719F420622B83AF
:101680001AC03196F983E8830EC0EA85FB85099577
:1016900097FF09C02B81019611F080E201C080E123
:1016A000822B8B8308C02E813F812F5F3F4F3F836A
:1016B0002E83992702C08FEF9FEFDF91CF9108957E
:1016C0000F931F93CF93DF93FB01238121FD03C071
:1016D0008FEF9FEF2CC022FF16C0468157812481D7
:1016E00035814217530744F4A081B1819D012F5FDA
:1016F0003F4F318320838C93268137812F5F3F4F6B
:101700003783268314C08B01EC01FB010084F18533
:10171000E02D0995892BE1F6D80116968D919C91C3
:101720001797019617969C938E931697CE01DF918B
:10173000CF911F910F910895A0E0B0E0E2EAFBE0A5
:101740000C946F0EAE01495F5F4FDA016D917D9190
:10175000AD010EE813E0F80182819381DC0113965C
:101760002C911397286013962C930E94F90BD801A3
:101770001296ED91FC9113972381277F2383E4E058
:101780000C948B0E60919003709191030E94600BFA
:1017900008950F931F93CF93DF93E0919003F091FF
:1017A0009103238121FF1BC08C01D0E0C0E0F80130
:1017B00081918F016091900370919103DB011896E4
:1017C000ED91FC911997882331F00995892B79F3D4
:1017D000DFEFCFEFECCF8AE00995892B19F08FEF7F
:1017E0009FEF02C08D2F9C2FDF91CF911F910F9102
:1017F0000895ABE0B0E0EFEFFBE00C94610E6C01FC
:101800007B018A01FC0117821682838181FFCCC192
:10181000CE0101963C01F6019381F70193FD85917C
:1018200093FF81917F01882309F4BAC1853239F48D
:1018300093FD859193FF81917F01853229F4B60153
:1018400090E00E94600BE7CF912C212C312CFFE11E
:10185000F315D8F08B3279F038F4803279F0833296
:10186000A1F4232D20611DC08D3261F0803369F415
:10187000232D216016C0832D8260382EE32DE46075
:101880003E2E2AC0F32DF8601DC037FC2DC020ED80
:10189000280F2A3040F08E32B9F436FC81C1232D56
:1018A0002064322E19C036FE06C08AE0989E200DB4
:1018B0001124922E11C0EAE02E9E200D1124222E1A
:1018C000F32DF0623F2E08C08C3621F4832D806802
:1018D000382E02C0883641F4F70193FD859193FFBD
:1018E00081917F018111B3CF982F9F7D95549330C3
:1018F00028F40C5F1F4F9FE399830DC0833631F0AE
:10190000833771F0833509F059C021C0F801808117
:1019100089830E5F1F4F88248394912C530113C039
:101920002801F2E04F0E511CF801A080B18036FE74
:1019300003C0692D70E002C06FEF7FEFC5010E9408
:10194000E50D4C018201F32DFF773F2E16C02801D3
:1019500022E0420E511CF801A080B18036FE03C087
:10196000692D70E002C06FEF7FEFC5010E94DA0DB4
:101970004C01F32DF0683F2E820133FC1BC0822DF9
:1019800090E088169906B0F4B60180E290E00E94DB
:10199000600B2A94F4CFF50137FC859137FE8191D5
:1019A0005F01B60190E00E94600B21102A9421E0B3
:1019B000821A91088114910471F7E8C0843611F0FD
:1019C000893641F5F80137FE07C060817181828157
:1019D00093810C5F1F4F08C060817181072E000C3E
:1019E000880B990B0E5F1F4FF32DFF763F2E97FF4D
:1019F00009C090958095709561957F4F8F4F9F4F4F
:101A0000F0683F2E2AE030E0A3010E94F00D882EFE
:101A1000861845C0853731F4232D2F7EB22E2AE05B
:101A200030E025C0932D997FB92E8F36C1F018F480
:101A3000883579F0B5C0803719F0883721F0B0C00B
:101A4000E92FE061BE2EB4FE0DC0FB2DF460BF2E69
:101A500009C034FE0AC0292F2660B22E06C028E035
:101A600030E005C020E130E002C020E132E0F801C2
:101A7000B7FE07C060817181828193810C5F1F4F27
:101A800006C06081718180E090E00E5F1F4FA3016E
:101A90000E94F00D882E8618FB2DFF773F2E36FE14
:101AA0000DC0232D2E7FA22E891458F434FE0BC0B6
:101AB00032FC09C0832D8E7EA82E05C0B82CA32C25
:101AC00003C0B82C01C0B92CA4FE0FC0FE01E80D64
:101AD000F11D8081803321F49A2D997EA92E09C0B1
:101AE000A2FE06C0B394B39404C08A2D867809F090
:101AF000B394A3FC11C0A0FE06C0B21488F4280C55
:101B0000922C9B180EC0B21460F4B60180E290E0F3
:101B10000E94600BB394F7CFB21418F42B1802C0D4
:101B2000982C212CA4FE10C0B60180E390E00E9406
:101B3000600BA2FE17C0A1FC03C088E790E002C0C2
:101B400088E590E0B6010CC08A2D867859F0A1FE98
:101B500002C08BE201C080E2A7FC8DE2B60190E0FA
:101B60000E94600B891438F4B60180E390E00E9473
:101B7000600B9A94F7CF8A94F301E80DF11D8081F0
:101B8000B60190E00E94600B8110F5CF222009F48D
:101B900042CEB60180E290E00E94600B2A94F6CF1C
:101BA000F6018681978102C08FEF9FEF2B96E2E1CD
:101BB0000C947D0EFC010590615070400110D8F727
:101BC000809590958E0F9F1F0895FC016150704085
:101BD00001900110D8F7809590958E0F9F1F089562
:101BE000FA01AA27283051F1203181F1E8946F934E
:101BF0006E7F6E5F7F4F8F4F9F4FAF4FB1E03ED0F4
:101C0000B4E03CD0670F781F891F9A1FA11D680F91
:101C1000791F8A1F911DA11D6A0F711D811D911DC4
:101C2000A11D20D009F468943F912AE0269F112439
:101C30003019305D3193DEF6CF010895462F47709D
:101C4000405D4193B3E00FD0C9F7F6CF462F4F70F8
:101C5000405D4A3318F0495D31FD4052419302D056
:101C6000A9F7EACFB4E0A6959795879577956795FC
:101C7000BA95C9F700976105710508959B01AC01FC
:101C80000A2E06945795479537952795BA95C9F723
:101C9000620F731F841F951FA01D08950E94680A7C
:101CA000A59F900DB49F900DA49F800D911D1124B0
:101CB0000895B7FF0C944E0E0E944E0E821B930B9C
:101CC00008952F923F924F925F926F927F928F92E0
:101CD0009F92AF92BF92CF92DF92EF92FF920F93BB
:101CE0001F93CF93DF93CDB7DEB7CA1BDB0B0FB6C5
:101CF000F894DEBF0FBECDBF09942A883988488882
:101D00005F846E847D848C849B84AA84B984C88417
:101D1000DF80EE80FD800C811B81AA81B981CE0F0E
:101D2000D11D0FB6F894DEBF0FBECDBFED010895F3
:041D3000F894FFCF55
:101D3400010000009801AB01C50100000003000090
:101D4400000017064F060000000100010101000118
:101D5400010100000101010100010401000001046E
:101D64000002000000000401000000000000000068
:101D7400000000000000000001000200000000015B
:101D84000000020000020001010000000100020046
:101D9400000000000000000000000000000004003B
:101DA400000000000000000000000001010101012A
:101DB4000104000000000001010100000000000017
:101DC4000101000001010101492776652068697459
:101DD400207468652077616C6C2E00492776652035
:101DE40062756D70656420696E746F207468652017
:101DF40077616C6C004F7563682120412077616CBA
:101E04006C002E2F292B2C2A2D3A302820170F0650
:00000001FF
