S01300004156522050726F6A6563742E7372656331
S11300000C949A010C94B7010C94B7010C94B701A9
S11300100C94B7010C94FA010C94B7010C94B70139
S11300200C94B7010C94B7010C94B7010C94B7016C
S11300300C94B7010C94B7010C94B7010C94B7015C
S11300400C9465090C94B7010C94B7010C94B70196
S11300500C9467060C9425060C94B7010C94B70114
S11300600C94B7010C94B7010C94B7010C94B7012C
S11300700C94B7010C94B7010C94B701426F78202B
S11300806D6F766564206F6E746F2074617267653E
S1130090742E0A00426F78206D6F7665642E0A0014
S11300A043616E6E6F7420737461636B20626F784A
S11300B065732E0A0043616E6E6F742070757368E9
S11300C020626F78206F6E746F2077616C6C2E0ADB
S11300D00043616E6E6F74206D6F766520696E7477
S11300E06F20612077616C6C2E0A00507265737307
S11300F0202772272F27522720746F20726573746C
S11301006172742C206F72202765272F27452720C2
S1130110746F20657869740047414D45204F5645FA
S11301205200256C752073004353534532303130EF
S11301302F373230312050726F6A656374206279D0
S113014020567520486169204D696E6820427569A2
S1130150202D2034373738393134300060381F3F90
S11301603F637EFE60BCB1B16166C3C060B63FBF91
S1130170617CC3FE60B3B1B16166C306E0B1313FD7
S11301803F637EFEF0F000F0F0F0F000F00000F0CD
S11301900000F000F00000F00000F000F0F0F0F0DB
S11301A000F0F0000000000000000000F0F0F0F0AB
S11301B0F0000000F0000000F0000000F00000007B
S11301C0F0000000F0F0F0F0F0000000000000008B
S11301D000000000F0F0F0F0F0F0F000000000F09B
S11301E0000000000000F000F0000000F0F000004B
S11301F000F000000000000000000000F0F0F0F04B
S1130200F0000000F0000000F0000000F00000002A
S1130210F0000000F0F0F0F0F0000000000000003A
S113022000000000F0F0F0F0F0F0F000F00000F05A
S113023000000000F00000F000000000F0F0F0F01A
S1130240000000000000000000000000F0F0F000DA
S1130250F0000000F000F000F0000000F000F000FA
S1130260F0000000F0F0F0F0F000000000000000EA
S113027000000000F0F0F0F0F000000000000000CA
S1130280F000000000000000F0000000F0F0F0F0CA
S1130290F00000000000000000000000000000006A
S11302A0000000003C3C3C3C3C3C00003C3C00006A
S11302B03C3C00003C003C3C003C00003C003C3C1E
S11302C0003C00003C3C00003C3C00003C3C3C3C0E
S11302D03C3C000000000010001000001000001062
S11302E0001000000010000010001010000010109A
S11302F0001010100010000000001010100000008A
S113030000000000000000000000000000000000E9
S1130310000000001B5B3F32356C001B5B25646DE5
S1130320001B5B324A001B5B306D001B5B25643B8A
S11303302564480011241FBECFEFD8E0DEBFCDBF37
S113034011E0A0E0B1E0E6E8FAE102C005900D9208
S1130350AC39B107D9F723E0ACE9B1E001C01D9293
S1130360A035B207E1F70E9495050C94410D0C9459
S1130370000010929C011092A101E8E6F0E0808157
S1130380826080838BB382608BBBECE6F0E080817B
S11303908F608083089580919C018823F9F0809177
S11303A09D015FB75078F89491E00BC0292F30E09D
S11303B0F901E356FE4F4081F901E456FE4F4083B4
S11303C09F5F20919C01921788F390919C0191501A
S11303D090939C01552319F0789408958FEF089514
S11303E08FB7F89410929C011092A10188230CF409
S11303F0789408951F920F920FB60F9211242F93A1
S11304003F934F938F939F93EF93FF9343B14F7019
S113041080E024C090919C019430F8F4242F30E0C3
S1130420082E02C0359527950A94E2F720FF15C0DF
S11304302091A10130E0082E02C0359527950A9439
S1130440E2F720FD0AC0E0919C0191E09E0F909399
S11304509C01F0E0E356FE4F80838F5F8430D0F23E
S11304604093A101FF91EF919F918F914F913F9103
S11304702F910F900FBE0F901F90189590E1899FB8
S1130480F0011124EB55FE4FE60FF11D908197709A
S1130490923099F028F4992341F0913051F0089565
S11304A0943079F0963089F0089540E00E94D503A5
S11304B008954FEF0E94D50308954CE30E94D5039D
S11304C008954FE00E94D503089540EF0E94D5039C
S11304D00895CF93DF9385E08093A40182E0809315
S11304E0A3011092A201A0E027C08A2F90E027E088
S11304F030E0281B390B462F50E0FC01E295F295C1
S1130500F07FFE27E07FFE27E25FFE4FE40FF51F3A
S11305107081C90182959295907F9827807F982752
S11305208B559E4FFC01E40FF51F70836F5F01C074
S113053060E06031D0F2AF5FA830D0F3D0E00AC001
S11305406C2F8D2F0E943E02CF5F01C0C0E0C031EE
S1130550B8F3DF5FD830D0F3DF91CF910895909155
S1130560A20181E089278093A201882341F040E120
S11305706091A3018091A4010E94D5030895609124
S1130580A3018091A4010E943E020895FF920F935B
S11305901F93CF93DF932091A401382F320F209122
S11305A0A301962F920F38301CF4332324F402C095
S11305B030E001C037E090311CF4992324F402C0E8
S11305C090E001C09FE0432F032E000C550BA92F90
S11305D0092E000CBB0BFA01E295F295F07FFE2781
S11305E0E07FFE27EB55FE4FEA0FFB1F2081032F10
S11305F0D82FD30FF92EC62FC90FD8301CF4DD2302
S113060024F402C0D0E001C0D7E0C0311CF4CC23F4
S113061024F402C0C0E001C0CFE08D2F0D2E000CE9
S1130620990B6C2F0C2E000C770BFC01E295F295C4
S1130630F07FFE27E07FFE27EB55FE4FE60FF71F06
S11306401081213051F481ED90E09F938F930E94AB
S11306508F0A0F900F9080E09CC0223019F0263052
S113066009F07EC0113051F485EB90E09F938F9395
S11306700E948F0A0F900F9080E08BC0123011F00F
S1130680163051F480EA90E09F938F930E948F0A72
S11306900F900F9080E07DC0143071F48295929594
S11306A0907F9827807F98278B559E4FFC01E60FFB
S11306B0F71F86E080830DC082959295907F9827DE
S11306C0807F98278B559E4FFC01E60FF71F32E081
S11306D03083263069F442955295507F5427407FE9
S11306E054274B555E4FA40FB51F84E08C9338C03C
S11306F042955295507F5427407F54274B555E4F67
S1130700A40FB51F1C9284E990E09F938F930E94DD
S11307108F0A0F900F90143041F48CE790E09F9370
S11307208F930E948F0A0F900F906091A301809184
S1130730A4010E943E0281E08093A2010E94AF02C4
S11307400093A401F092A3016F2D802F0E943E021A
S11307506C2F8D2F0E943E020E94AF0281E019C0CF
S113076081E08093A2010E94AF02E091A4018091F4
S1130770A30190E1E99FF0011124EB55FE4FE80F2E
S1130780F11D10820093A401F092A3010E94AF0214
S113079081E0DF91CF911F910F91FF90089580E048
S11307A0089580E80E940D0708951F93CF93DF9367
S11307B06031B0F48830A0F4142FD62FC82F81E014
S11307C00E9439078C2F877020E1829FC001112479
S11307D06D2F6F70862B0E943907812F0E94390775
S11307E0DF91CF911F9108950F931F93CF93803181
S11307F0A0F48B01C82F83E00E9439078C2F8F70DF
S11308000E943907C0E007C0F801EC0FF11D808198
S11308100E943907CF5FC830B8F3CF911F910F9171
S1130820089584E00E94390782E00E943907089500
S11308308FE00E94390708950E94D1030E94B901F4
S113084040E060E07BE480E090E00E94BA060E9411
S11308503F090E948A090E948F09789408950E9492
S113086036090E9417090E94200965E083E00E946E
S1130870DD0865E070E08BE090E00E94030988E207
S113088091E09F938F930E948F0A0E9428080E94F0
S1130890F0010F900F900E94CB018F3F99F40E94BA
S11308A00107882361F080914A0390914B030E94D1
S11308B0150A8337910531F08335910519F00E94AB
S11308C03208E9CF08950E9436090E9420090E9447
S11308D069020E94F0010E94080708954F925F92F6
S11308E06F927F928F929F92AF92BF92CF92DF923C
S11308F0EF92FF92CF93DF9300D000D01F92CDB739
S1130900DEB70E9455094B015C010E9455092B0179
S11309103C0119821A821B821C82C7C00E94CB012F
S11309208D83811109C061E00E94C602882321F0F1
S11309300E9455094B015C018D81813051F460E0C6
S11309408FEF0E94C602882321F00E9455094B01B3
S11309505C019D81923051F460E081E00E94C60206
S1130960882321F00E9455094B015C01AD81A3301D
S113097051F46FEF80E00E94C602882321F00E94A8
S113098055094B015C010E940107882309F449C001
S113099080914A0390914B030E94150A8337910575
S11309A019F08335910559F460E08FEF0E94C60277
S11309B08823B9F10E9455094B015C0132C0873785
S11309C0910519F08735910559F460E081E00E94A2
S11309D0C602882331F10E9455094B015C0121C0F4
S11309E08136910519F08134910559F46FEF80E057
S11309F00E94C6028823A9F00E9455094B015C019C
S1130A0010C08436910519F08434910551F461E0E5
S1130A1080E00E94C602882321F00E9455094B0100
S1130A205C010E9455096B017C01D501C401885306
S1130A309F4FAF4FBF4FC816D906EA06FB0620F0FA
S1130A400E94AF0246015701C701B6016419750936
S1130A508609970928EE33E040E050E00E949209AD
S1130A6069017A0189819A81AB81BC8182179307DC
S1130A70A407B507D1F060E070E080E090E00E9448
S1130A800309FF92EF92DF92CF9282E291E09F936B
S1130A908F930E948F0A0F900F900F900F900F90DA
S1130AA00F90C982DA82EB82FC820E94CF038823F2
S1130AB009F434CF0F900F900F900F900F90DF91A7
S1130AC0CF91FF90EF90DF90CF90BF90AF909F9029
S1130AD08F907F906F905F904F9008956AE070E0E0
S1130AE08EE090E00E94030988E191E09F938F9348
S1130AF00E948F0A6AE070E08FE090E00E94030990
S1130B008BEE90E09F938F930E948F0A0F900F902B
S1130B100F900F900E9401078823E1F380914A030C
S1130B2090914B030E94150AF5CF0E941C040E9469
S1130B302F040E9463040E946E040E946E05CF93EA
S1130B40C82F8A3019F48DE00E949F059FB79078D2
S1130B5002C0992329F1809137028F3FD1F3F89491
S1130B60E091360281E08E0F80933602F0E0E85C7B
S1130B70FD4FC083809137028F5F8093370280914D
S1130B8036028F3F11F410923602E1ECF0E08081DE
S1130B9080628083992339F0789480E090E005C0E6
S1130BA081E090E002C080E090E0CF9108958091D0
S1130BB049038823E1F32FB72078F8948091370311
S1130BC03091490390E0831B91095AF4E091370373
S1130BD080914903F0E0E81BF109E85BFC4F808158
S1130BE00AC0E091370380914903F0E0E81BF10962
S1130BF0E85CFC4F808190914903915090934903A4
S1130C00222309F07894909126029B31B1F49091BB
S1130C1025029B3591F4823449F018F4813461F053
S1130C200CC0833429F0843429F007C083E705C05D
S1130C3084E603C081E601C087E790912502909382
S1130C4026028093250290E008951F920F920FB61A
S1130C500F9211242F938F939F93EF93FF9380917F
S1130C603702882329F1809136022091370290E0DF
S1130C70821B91095AF4E091360280913702F0E028
S1130C80E81BF109E95CFC4F90810AC0E09136024F
S1130C9080913702F0E0E81BF109E85CFD4F908198
S1130CA0809137028150809337029093C60005C02B
S1130CB0E1ECF0E080818F7D8083FF91EF919F9143
S1130CC08F912F910F900FBE0F901F9018951F9228
S1130CD00F920FB60F9211242F933F934F935F936C
S1130CE06F937F938F939F93AF93BF93CF93EF9320
S1130CF0FF93C091C60080912702882349F0809118
S1130D0037028F3F29F060E070E08C2F0E949F052E
S1130D1080914903803120F081E08093480318C01A
S1130D20CD3009F4CAE0E091370381E08E0F80935F
S1130D303703F0E0E85CFC4FC083809149038F5F88
S1130D408093490380913703803111F41092370363
S1130D50FF91EF91CF91BF91AF919F918F917F912F
S1130D606F915F914F913F912F910F900FBE0F9014
S1130D701F90189510923602109237021092370382
S1130D80109249031092480340932702DC01CB01DF
S1130D90880F991FAA1FBB1F880F991FAA1FBB1F6B
S1130DA09C01AD01220F331F441F551F60E072E107
S1130DB08AE790E00E94B409BA01A9014F5F5F4F2E
S1130DC06F4F7F4FDB01CA011AF40196A11DB11DBB
S1130DD0B595A7959795879501979093C5008093AE
S1130DE0C400E1ECF0E088E1808380818068808346
S1130DF0EAE4F3E080E091E093838283918380834B
S1130E0008959091490381E0911101C080E0089513
S1130E101092370310924903089594B1906B94B9DA
S1130E2095B1906195B990E59CBD883021F08032F0
S1130E3011F0823019F491E09DBD01C01DBC8032D7
S1130E4069F028F4883071F0803161F00EC080348C
S1130E5029F0803851F48CB581608CBD8CB58260EA
S1130E608CBD03C08CB581608CBD85B18F7E85B986
S1130E7008958EBD0DB407FEFDCF8EB508951F9362
S1130E80CF93DF93CDB7DEB728970FB6F894DEBFC4
S1130E900FBECDBF10E017C0612F70E0660F771F43
S1130EA0660F771F660F771F6C577E4F48E050E040
S1130EB0CE0101960E940C0ABE016F5F7F4F812F05
S1130EC00E94F4031F5F103138F328960FB6F8948C
S1130ED0DEBF0FBECDBFDF91CF911F910895CF9399
S1130EE0DF93CDB7DEB728970FB6F894DEBF0FBEF9
S1130EF0CDBF0E9411046091280270E0660F771F35
S1130F00660F771F660F771F6C577E4F48E050E0DF
S1130F10CE0101960E940C0ABE016F5F7F4F8FE0E5
S1130F200E94F4034091280250E04F5F5F4F9A0102
S1130F3036952795ABE7B4E10E94D309969587953A
S1130F4062E3689F9001699F300D1124CA01821BDE
S1130F50930B80932802803129F4809131028160BF
S1130F608093310228960FB6F894DEBF0FBECDBF32
S1130F70DF91CF910895EF92FF920F931F93CF9338
S1130F80DF93CDB7DEB728970FB6F894DEBF0FBE58
S1130F90CDBFF62EE42E682F70E0660F771F660F24
S1130FA0771F660F771F645A7E4F48E050E0CE01EA
S1130FB001960E940C0A0FE310E00F191109298110
S1130FC03A814B815C816D817E818F8198850E94FD
S1130FD0E409217030E040E050E060E070E080E03F
S1130FE090E0A0E00E94000AC1F0E1101BC010E0F4
S1130FF00FC0812F90E0FC01EB56FE4F20812F158E
S113100030F0FC01E257FE4F80810E9429091F5FE6
S1131010173078F3EE24E39405C0EE2019F00E9413
S11310201709E12C60914C0370914D0380E290E02C
S11310300E94530A8E2D28960FB6F894DEBF0FBE79
S1131040CDBFDF91CF911F910F91FF90EF90089545
S11310500E9418040E943F078091310281608093AE
S113106031020895CF92DF92EF92FF920E945509C8
S11310706B017C018091310280FF16C0C0922D0269
S1131080D0922E02E0922F02F0923002C0922902F6
S1131090D0922A02E0922B02F0922C0290E19093DB
S11310A02802887F8093310280912802803109F0E0
S11310B064C080912D0290912E02A0912F02B091D4
S11310C03002AC01BD014053584F6F4F7F4F4C1558
S11310D05D056E057F0558F40E946F07C0922902D2
S11310E0D0922A02E0922B02F0922C0261C020914D
S11310F03102322F327021FD19C088519C4FAF4FFD
S1131100BF4F8C159D05AE05BF0580F40E943F07B7
S113111080913102826080933102C0922902D09280
S11311202A02E0922B02F0922C0242C0311140C0FC
S11311308091290290912A02A0912B02B0912C0255
S11311408C599F4FAF4FBF4F8C159D05AE05BF0502
S113115078F584E028272093310222FF03C00E94FF
S1131160180402C00E943F07C0922902D0922A02AA
S1131170E0922B02F0922C021BC0809129029091E4
S11311802A02A0912B02B0912C0288539F4FAF4F9B
S1131190BF4F8C159D05AE05BF0550F40E946F0727
S11311A0C0922902D0922A02E0922B02F0922C02E1
S11311B0FF90EF90DF90CF900895FF920F931F93CD
S11311C0CF93DF93F82E062F10E0D0E014C0602FE9
S11311D070E08F2D90E0810F911D0E940309C0E003
S11311E007C04D2F6C2F812F0E94BB07D82FCF5FD4
S11311F0C034B8F31F5F153050F3DF91CF911F91C6
S11312000F91FF9008956F5F7F4F7F936F930196C7
S11312109F938F938BE293E09F938F930E948F0A07
S11312200F900F900F900F900F900F90089586E2FB
S113123093E09F938F930E948F0A0F900F900895CD
S113124081E293E09F938F930E948F0A0F900F90F7
S113125008951F928F938BE193E09F938F930E9445
S11312608F0A0F900F900F900F90089584E193E0F0
S11312709F938F930E948F0A0F900F90089510925E
S1131280320210923302109234021092350216BCCC
S11312908CE787BD92E094BD83E085BDEEE6F0E087
S11312A080818260808395BB08958FB7282F207832
S11312B0F8946091320270913302809134029091DB
S11312C03502222309F0789408951F920F920FB6E5
S11312D00F9211248F939F93AF93BF938091320207
S11312E090913302A0913402B09135020196A11D70
S11312F0B11D8093320290933302A0933402B093D1
S11313003502BF91AF919F918F910F900FBE0F90B7
S11313101F901895109285001092840008951092E1
S1131320B2000895A1E21A2EAA1BBB1BFD010DC039
S1131330AA1FBB1FEE1FFF1FA217B307E407F50781
S113134020F0A21BB30BE40BF50B661F771F881F5D
S1131350991F1A9469F760957095809590959B01F3
S1131360AC01BD01CF010895052E97FB1EF4009436
S11313700E94CB0957FD07D00E94920907FC03D0B5
S11313804EF40C94CB0950954095309521953F4FE0
S11313904F4F5F4F089590958095709561957F4F5D
S11313A08F4F9F4F0895A29FB001B39FC001A39F89
S11313B0700D811D1124911DB29F700D811D11248A
S11313C0911D089597FB10F8169400080F930830A8
S11313D098F00850232F342F452F562F672F782F3E
S11313E0892F902DF4CF05949795879577956795D8
S11313F057954795379527950A95AAF70F9108951C
S11314000024A7FD00942A17300540055005600507
S11314107005800590050895FB01DC0102C005906C
S11314200D9241505040D8F70895CF93DF93EC01CB
S11314302B8120FF33C026FF0AC02F7B2B838E8194
S11314409F8101969F838E838A8190E029C022FF29
S11314500FC0E881F9818081082E000C990B009758
S113146019F420622B831AC03196F983E8830EC0E5
S1131470EA85FB85099597FF09C02B81019611F038
S113148080E201C080E1822B8B8308C02E813F81E2
S11314902F5F3F4F3F832E83992702C08FEF9FEF2B
S11314A0DF91CF9108950F931F93CF93DF93FB01A7
S11314B0238121FD03C08FEF9FEF2CC022FF16C0B4
S11314C046815781248135814217530744F4A08112
S11314D0B1819D012F5F3F4F318320838C932681FF
S11314E037812F5F3F4F3783268314C08B01EC0174
S11314F0FB010084F185E02D0995892BE1F6D801E3
S113150016968D919C911797019617969C938E939E
S11315101697CE01DF91CF911F910F910895A0E00E
S1131520B0E0E5E9FAE00C94180DAE01495F5F4FB5
S1131530DA016D917D91AD010AE413E0F801828135
S11315409381DC0113962C911397286013962C93A6
S11315500E94B50AD8011296ED91FC91139723814C
S1131560277F2383E4E00C94340DABE0B0E0EBEB95
S1131570FAE00C940A0D6C017B018A01FC011782CC
S11315801682838181FFCCC1CE0101963C01F60114
S11315909381F70193FD859193FF81917F018823C6
S11315A009F4BAC1853239F493FD859193FF819191
S11315B07F01853229F4B60190E00E94530AE7CFF7
S11315C0912C212C312CFFE1F315D8F08B3279F0DA
S11315D038F4803279F08332A1F4232D20611DC0C8
S11315E08D3261F0803369F4232D216016C0832D80
S11315F08260382EE32DE4603E2E2AC0F32DF8607D
S11316001DC037FC2DC020ED280F2A3040F08E324B
S1131610B9F436FC81C1232D2064322E19C036FE64
S113162006C08AE0989E200D1124922E11C0EAE093
S11316302E9E200D1124222EF32DF0623F2E08C081
S11316408C3621F4832D8068382E02C0883641F40C
S1131650F70193FD859193FF81917F018111B3CFB0
S1131660982F9F7D9554933028F40C5F1F4F9FE370
S113167099830DC0833631F0833771F0833509F0D7
S113168059C021C0F801808189830E5F1F4F8824CF
S11316908394912C530113C02801F2E04F0E511C86
S11316A0F801A080B18036FE03C0692D70E002C04D
S11316B06FEF7FEFC5010E94A10C4C018201F32D55
S11316C0FF773F2E16C0280122E0420E511CF8017C
S11316D0A080B18036FE03C0692D70E002C06FEFB8
S11316E07FEFC5010E94960C4C01F32DF0683F2E4C
S11316F0820133FC1BC0822D90E088169906B0F459
S1131700B60180E290E00E94530A2A94F4CFF501D6
S113171037FC859137FE81915F01B60190E00E940C
S1131720530A21102A9421E0821A91088114910409
S113173071F7E8C0843611F0893641F5F80137FEB7
S113174007C060817181828193810C5F1F4F08C043
S113175060817181072E000C880B990B0E5F1F4F5F
S1131760F32DFF763F2E97FF09C0909580957095D5
S113177061957F4F8F4F9F4FF0683F2E2AE030E0F6
S1131780A3010E94AC0C882E861845C0853731F41D
S1131790232D2F7EB22E2AE030E025C0932D997F91
S11317A0B92E8F36C1F018F4883579F0B5C080377A
S11317B019F0883721F0B0C0E92FE061BE2EB4FEE5
S11317C00DC0FB2DF460BF2E09C034FE0AC0292FC2
S11317D02660B22E06C028E030E005C020E130E0EB
S11317E002C020E132E0F801B7FE07C060817181D8
S11317F0828193810C5F1F4F06C06081718180E0FC
S113180090E00E5F1F4FA3010E94AC0C882E861837
S1131810FB2DFF773F2E36FE0DC0232D2E7FA22EEB
S1131820891458F434FE0BC032FC09C0832D8E7E1B
S1131830A82E05C0B82CA32C03C0B82C01C0B92C09
S1131840A4FE0FC0FE01E80DF11D8081803321F458
S11318509A2D997EA92E09C0A2FE06C0B394B39412
S113186004C08A2D867809F0B394A3FC11C0A0FEAD
S113187006C0B21488F4280C922C9B180EC0B21423
S113188060F4B60180E290E00E94530AB394F7CF6B
S1131890B21418F42B1802C0982C212CA4FE10C0EA
S11318A0B60180E390E00E94530AA2FE17C0A1FC97
S11318B003C088E790E002C088E590E0B6010CC060
S11318C08A2D867859F0A1FE02C08BE201C080E225
S11318D0A7FC8DE2B60190E00E94530A891438F403
S11318E0B60180E390E00E94530A9A94F7CF8A9459
S11318F0F301E80DF11D8081B60190E00E94530AC6
S11319008110F5CF222009F442CEB60180E290E0A6
S11319100E94530A2A94F6CFF6018681978102C069
S11319208FEF9FEF2B96E2E10C94260DFC010590BE
S1131930615070400110D8F7809590958E0F9F1FCD
S11319400895FC016150704001900110D8F7809512
S113195090958E0F9F1F0895FA01AA27283051F100
S1131960203181F1E8946F936E7F6E5F7F4F8F4FCC
S11319709F4FAF4FB1E03ED0B4E03CD0670F781F2B
S1131980891F9A1FA11D680F791F8A1F911DA11D10
S11319906A0F711D811D911DA11D20D009F4689449
S11319A03F912AE0269F11243019305D3193DEF6F1
S11319B0CF010895462F4770405D4193B3E00FD0A7
S11319C0C9F7F6CF462F4F70405D4A3318F0495D92
S11319D031FD4052419302D0A9F7EACFB4E0A69575
S11319E09795879577956795BA95C9F70097610597
S11319F0710508959B01AC010A2E069457954795ED
S1131A0037952795BA95C9F7620F731F841F951FE1
S1131A10A01D08952F923F924F925F926F927F92F2
S1131A208F929F92AF92BF92CF92DF92EF92FF92EA
S1131A300F931F93CF93DF93CDB7DEB7CA1BDB0B96
S1131A400FB6F894DEBF0FBECDBF09942A8839883B
S1131A5048885F846E847D848C849B84AA84B98442
S1131A60C884DF80EE80FD800C811B81AA81B9814E
S1131A70CE0FD11D0FB6F894DEBF0FBECDBFED0162
S1091A800895F894FFCF65
S1131A8600000003000000009F05D70500000001C8
S1131A960001010100010101000001010101000131
S1131AA6040100000104000200000000040100001B
S1131AB6000000000000000000000000000001001B
S1131AC60200000000010000020000020001010003
S1131AD600000100020000000000000000000000F9
S1131AE600000000040000000000000000000000E8
S1131AF600010101010101040000000000010101CF
S1131B0600000000000001010000010101012E2F68
S10F1B16292B2C2A2D3A302820170F060A
S9030000FC
