S01300004156522050726F6A6563742E7372656331
S11300000C9460010C947D010C947D010C947D0191
S11300100C947D010C94C0010C947D010C947D0121
S11300200C947D010C947D010C947D010C947D0154
S11300300C947D010C947D010C947D010C947D0144
S11300400C9496080C947D010C947D010C947D0114
S11300500C9498050C9456050C947D010C947D0128
S11300600C947D010C947D010C947D010C947D0114
S11300700C947D010C947D010C947D015072657388
S113008073202772272F27522720746F20726573DD
S1130090746172742C206F72202765272F274527DF
S11300A020746F20657869740047414D45204F5690
S11300B045520043535345323031302F37323031BB
S11300C02050726F6A6563742062792056752048E7
S11300D06169204D696E6820427569202D2034378E
S11300E03738393134300060381F3F3F637EFE605B
S11300F0BCB1B16166C3C060B63FBF617CC3FE6082
S1130100B3B1B16166C306E0B1313F3F637EFEF037
S1130110F000F0F0F0F000F00000F00000F000F06B
S11301200000F00000F000F0F0F0F000F0F000004B
S113013000000000000000F0F0F0F0F0000000F01B
S1130140000000F0000000F0000000F0000000F0EB
S1130150F0F0F0F00000000000000000000000F0EB
S1130160F0F0F0F0F0F000000000F00000000000FB
S113017000F000F0000000F0F0000000F0000000CB
S113018000000000000000F0F0F0F0F0000000F0CB
S1130190000000F0000000F0000000F0000000F09B
S11301A0F0F0F0F00000000000000000000000F09B
S11301B0F0F0F0F0F0F000F00000F000000000F0CB
S11301C00000F000000000F0F0F0F000000000007B
S11301D000000000000000F0F0F000F0000000F06B
S11301E000F000F0000000F000F000F0000000F06B
S11301F0F0F0F0F00000000000000000000000F04B
S1130200F0F0F0F000000000000000F0000000003A
S1130210000000F0000000F0F0F0F0F0000000003A
S11302200000000000000000000000000000003C8E
S11302303C3C3C3C3C00003C3C00003C3C00003C62
S1130240003C3C003C00003C003C3C003C00003CCA
S11302503C00003C3C00003C3C3C3C3C3C0000007E
S1130260000010001000001000001000100000003A
S113027010000010001010000010100010101000EA
S1130280100000000010101000000000000000002A
S11302900000000000000000000000000000001B3F
S11302A05B3F32356C001B5B25646D001B5B324A7F
S11302B0001B5B306D001B5B25643B25644800001C
S11302C011241FBECFEFD8E0DEBFCDBF11E0A0E008
S11302D0B1E0E8EEF8E102C005900D92AC39B10747
S11302E0D9F723E0ACE9B1E001C01D92A035B20713
S11302F0E1F70E94C6040C94720C0C940000109256
S11303009C011092A101E8E6F0E080818260808384
S11303108BB382608BBBECE6F0E080818F608083DE
S1130320089580919C018823F9F080919D015FB725
S11303305078F89491E00BC0292F30E0F901E3568E
S1130340FE4F4081F901E456FE4F40839F5F2091A8
S11303509C01921788F390919C01915090939C0179
S1130360552319F0789408958FEF08958FB7F89472
S113037010929C011092A10188230CF478940895A2
S11303801F920F920FB60F9211242F933F934F9306
S11303908F939F93EF93FF9343B14F7080E024C0FA
S11303A090919C019430F8F4242F30E0082E02C080
S11303B0359527950A94E2F720FF15C02091A101F5
S11303C030E0082E02C0359527950A94E2F720FD07
S11303D00AC0E0919C0191E09E0F90939C01F0E093
S11303E0E356FE4F80838F5F8430D0F24093A101A7
S11303F0FF91EF919F918F914F913F912F910F908A
S11304000FBE0F901F90189590E1899FF001112461
S1130410EB55FE4FE60FF11D90819770923099F0E5
S113042028F4992341F0913051F00895943079F0F3
S1130430963089F0089540E00E94550308954FEFE7
S11304400E94550308954CE30E94550308954FE01C
S11304500E945503089540EF0E9455030895CF93D9
S1130460DF9385E08093A40182E08093A30110923E
S1130470A201A0E027C08A2F90E027E030E0281BEB
S1130480390B462F50E0FC01E295F295F07FFE27F0
S1130490E07FFE27E25FFE4FE40FF51F7081C90184
S11304A082959295907F9827807F98278B559E4FB1
S11304B0FC01E40FF51F70836F5F01C060E06031E1
S11304C0D0F2AF5FA830D0F3D0E00AC06C2F8D2FEC
S11304D00E940402CF5F01C0C0E0C031B8F3DF5F07
S11304E0D830D0F3DF91CF9108959091A20181E0AB
S11304F089278093A201882341F040E16091A30100
S11305008091A4010E94550308956091A3018091F4
S1130510A4010E9404020895CF93DF933091A401B3
S113052031110BC088234CF4E091A301F0E0EB5EA1
S1130530FD4F9081913009F4A2C0373059F4181658
S11305404CF4E091A301F0E0EB55FE4F9081913023
S113055009F497C09091A30191110CC0662354F43F
S113056020E1329FF0011124EB55FE4F2785213005
S113057009F489C09F3061F4161654F420E1329FC7
S1130580F0011124EB55FE4F2081213009F47DC088
S1130590482F082E000C550BFA01E30FF11D9F01A3
S11305A0A92FB0E0AD01460F511D67FD5A95E295A4
S11305B0F295F07FFE27E07FFE27EB55FE4FE40F18
S11305C0F51F4081413029F4992319F09F3009F037
S11305D05EC091110FC0F901E295F295F07FFE27FC
S11305E0E07FFE27EB55FE4FEA0FFB1F40814130B1
S11305F009F44FC09F3071F422953295307F322731
S1130600207F32272B553E4FA20FB31F9C91913070
S113061009F441C0D62FC82F81E08093A2010E9423
S113062075028091A401811106C0CC2324F4895F52
S11306308093A4010BC0873031F41C1624F4875036
S11306408093A40103C08C0F8093A4016091A30143
S11306506F3031F41D1624F46F506093A3010BC066
S1130660611106C0DD2324F4615F6093A30103C01C
S11306706D0F6093A3010E94750281E00DC080E0BC
S11306800BC080E009C080E007C080E005C080E0C6
S113069003C080E001C080E0DF91CF91089580E045
S11306A0089580E80E943E0608951F93CF93DF9338
S11306B06031B0F48830A0F4142FD62FC82F81E015
S11306C00E946A068C2F877020E1829FC00111244A
S11306D06D2F6F70862B0E946A06812F0E946A0616
S11306E0DF91CF911F9108950F931F93CF93803182
S11306F0A0F48B01C82F83E00E946A068C2F8F70B0
S11307000E946A06C0E007C0F801EC0FF11D808169
S11307100E946A06CF5FC830B8F3CF911F910F9142
S1130720089584E00E946A0682E00E946A060895A1
S11307308FE00E946A0608950E9451030E947F017F
S113074040E060E07BE480E090E00E94EB050E94E2
S113075070080E94BB080E94C008789408950E9403
S113076067080E9448080E94510865E083E00E94DF
S11307700E0865E070E08BE090E00E94340883EBA3
S113078090E09F938F930E94C0090E9459070E9492
S1130790B6010F900F900E9491018F3F99F40E942F
S11307A03206882361F080914A0390914B030E94A2
S11307B046098337910531F08335910519F00E947C
S11307C06307E9CF08950E9467080E9451080E94B8
S11307D02F020E94B6010E94390608958F929F92BB
S11307E0AF92BF92CF92DF92EF92FF92CF930E948B
S11307F086084B015C0194C00E949101C82F8111AD
S11308000AC061E080E00E948C02882321F00E94EB
S113081086084B015C01C13051F460E08FEF0E9407
S11308208C02882321F00E9486084B015C01C230AF
S113083051F460E081E00E948C02882321F00E9440
S113084086084B015C01C33051F46FEF80E00E94D5
S11308508C02882321F00E9486084B015C010E94CF
S11308603206882309F449C080914A0390914B03CE
S11308700E9446098337910519F08335910559F48F
S113088060E08FEF0E948C028823B9F10E948608F1
S11308904B015C0132C08737910519F0873591050A
S11308A059F460E081E00E948C02882331F10E94B7
S11308B086084B015C0121C08136910519F0813411
S11308C0910559F46FEF80E00E948C028823A9F00F
S11308D00E9486084B015C0110C08436910519F012
S11308E08434910551F461E080E00E948C028823F5
S11308F021F00E9486084B015C010E9486086B016E
S11309007C01D501C40188539F4FAF4FBF4FC81618
S1130910D906EA06FB0620F00E947502460157013B
S11309200E944F03882309F467CFCF91FF90EF9083
S1130930DF90CF90BF90AF909F908F9008956AE022
S113094070E08EE090E00E94340889EA90E09F9382
S11309508F930E94C0096AE070E08FE090E00E94EB
S113096034088CE790E09F938F930E94C0090F9006
S11309700F900F900F900E9432068823E1F380912C
S11309804A0390914B030E944609F5CF0E949C03B1
S11309900E94AF030E94E3030E94EE030E949F049F
S11309A0CF93C82F8A3019F48DE00E94D0049FB7EA
S11309B0907802C0992329F1809137028F3FD1F3B7
S11309C0F894E091360281E08E0F80933602F0E0D5
S11309D0E85CFD4FC083809137028F5F80933702BC
S11309E0809136028F3F11F410923602E1ECF0E070
S11309F0808180628083992339F0789480E090E04C
S1130A0005C081E090E002C080E090E0CF910895BD
S1130A10809149038823E1F32FB72078F8948091DB
S1130A2037033091490390E0831B91095AF4E09114
S1130A30370380914903F0E0E81BF109E85BFC4FC0
S1130A4080810AC0E091370380914903F0E0E81BFC
S1130A50F109E85CFC4F8081909149039150909397
S1130A604903222309F07894909126029B31B1F432
S1130A70909125029B3591F4823449F018F4813425
S1130A8061F00CC0833429F0843429F007C083E773
S1130A9005C084E603C081E601C087E79091250282
S1130AA0909326028093250290E008951F920F925E
S1130AB00FB60F9211242F938F939F93EF93FF936D
S1130AC080913702882329F18091360220913702E0
S1130AD090E0821B91095AF4E0913602809137022A
S1130AE0F0E0E81BF109E95CFC4F90810AC0E09159
S1130AF0360280913702F0E0E81BF109E85CFD4F13
S1130B009081809137028150809337029093C60080
S1130B1005C0E1ECF0E080818F7D8083FF91EF914F
S1130B209F918F912F910F900FBE0F901F9018954A
S1130B301F920F920FB60F9211242F933F934F934E
S1130B405F936F937F938F939F93AF93BF93CF9351
S1130B50EF93FF93C091C60080912702882349F048
S1130B60809137028F3F29F060E070E08C2F0E9463
S1130B70D00480914903803120F081E080934803C0
S1130B8018C0CD3009F4CAE0E091370381E08E0F3C
S1130B9080933703F0E0E85CFC4FC0838091490305
S1130BA08F5F8093490380913703803111F4109251
S1130BB03703FF91EF91CF91BF91AF919F918F91A7
S1130BC07F916F915F914F913F912F910F900FBE45
S1130BD00F901F90189510923602109237021092BF
S1130BE03703109249031092480340932702DC0113
S1130BF0CB01880F991FAA1FBB1F880F991FAA1F1B
S1130C00BB1F9C01AD01220F331F441F551F60E021
S1130C1072E18AE790E00E94C308BA01A9014F5F1C
S1130C205F4F6F4F7F4FDB01CA011AF40196A11D7C
S1130C30B11DB595A7959795879501979093C50094
S1130C408093C400E1ECF0E088E1808380818068D7
S1130C508083EAE4F3E080E091E0938382839183EC
S1130C60808308959091490381E0911101C080E04F
S1130C7008951092370310924903089594B1906B2C
S1130C8094B995B1906195B990E59CBD883021F0F7
S1130C90803211F0823019F491E09DBD01C01DBC79
S1130CA0803269F028F4883071F0803161F00EC030
S1130CB0803429F0803851F48CB581608CBD8CB5BA
S1130CC082608CBD03C08CB581608CBD85B18F7E84
S1130CD085B908958EBD0DB407FEFDCF8EB5089578
S1130CE01F93CF93DF93CDB7DEB728970FB6F89451
S1130CF0DEBF0FBECDBF10E017C0612F70E0660FDE
S1130D00771F660F771F660F771F615F7E4F48E07E
S1130D1050E0CE0101960E943D09BE016F5F7F4FF6
S1130D20812F0E9474031F5F103138F328960FB689
S1130D30F894DEBF0FBECDBFDF91CF911F91089510
S1130D40CF93DF93CDB7DEB728970FB6F894DEBF05
S1130D500FBECDBF0E9491036091280270E0660F20
S1130D60771F660F771F660F771F615F7E4F48E01E
S1130D7050E0CE0101960E943D09BE016F5F7F4F96
S1130D808FE00E9474034091280250E04F5F5F4F50
S1130D909A0136952795ABE7B4E10E94E20896954F
S1130DA0879562E3689F9001699F300D1124CA0101
S1130DB0821B930B80932802803129F480913102A5
S1130DC081608093310228960FB6F894DEBF0FBE7F
S1130DD0CDBFDF91CF910895EF92FF920F931F93B0
S1130DE0CF93DF93CDB7DEB728970FB6F894DEBF65
S1130DF00FBECDBFF62EE42E682F70E0660F771F6E
S1130E00660F771F660F771F69517F4F48E050E0E8
S1130E10CE0101960E943D090FE310E00F1911095C
S1130E2029813A814B815C816D817E818F81988596
S1130E300E94F308217030E040E050E060E070E090
S1130E4080E090E0A0E00E940F09C1F0E1101BC017
S1130E5010E00FC0812F90E0FC01EB56FE4F208183
S1130E602F1530F0FC01E257FE4F80810E945A0892
S1130E701F5F173078F3EE24E39405C0EE2019F0D9
S1130E800E944808E12C60914C0370914D0380E26C
S1130E9090E00E9484098E2D28960FB6F894DEBF48
S1130EA00FBECDBFDF91CF911F910F91FF90EF90B7
S1130EB008950E9498030E94700680913102816017
S1130EC0809331020895CF92DF92EF92FF920E94B5
S1130ED086086B017C018091310280FF16C0C092AC
S1130EE02D02D0922E02E0922F02F0923002C09294
S1130EF02902D0922A02E0922B02F0922C0290E175
S1130F0090932802887F8093310280912802803157
S1130F1009F064C080912D0290912E02A0912F02BD
S1130F20B0913002AC01BD014053584F6F4F7F4F19
S1130F304C155D056E057F0558F40E94A006C0920D
S1130F402902D0922A02E0922B02F0922C0261C074
S1130F5020913102322F327021FD19C088519C4FEB
S1130F60AF4FBF4F8C159D05AE05BF0580F40E94A1
S1130F70700680913102826080933102C09229020E
S1130F80D0922A02E0922B02F0922C0242C031113C
S1130F9040C08091290290912A02A0912B02B09125
S1130FA02C028C599F4FAF4FBF4F8C159D05AE053A
S1130FB0BF0578F584E028272093310222FF03C07F
S1130FC00E94980302C00E947006C0922902D09227
S1130FD02A02E0922B02F0922C021BC0809129027B
S1130FE090912A02A0912B02B0912C0288539F4F1A
S1130FF0AF4FBF4F8C159D05AE05BF0550F40E9441
S1131000A006C0922902D0922A02E0922B02F0920A
S11310102C02FF90EF90DF90CF900895FF920F93F2
S11310201F93CF93DF93F82E062F10E0D0E014C067
S1131030602F70E08F2D90E0810F911D0E94340885
S1131040C0E007C04D2F6C2F812F0E94EC06D82FD3
S1131050CF5FC034B8F31F5F153050F3DF91CF91E9
S11310601F910F91FF9008956F5F7F4F7F936F9350
S113107001969F938F9386EB92E09F938F930E94A8
S1131080C0090F900F900F900F900F900F9008953C
S113109081EB92E09F938F930E94C0090F900F9071
S11310A008958CEA92E09F938F930E94C0090F9059
S11310B00F9008951F928F9386EA92E09F938F93E7
S11310C00E94C0090F900F900F900F9008958FE920
S11310D092E09F938F930E94C0090F900F90089500
S11310E0109232021092330210923402109235029E
S11310F016BC8CE787BD92E094BD83E085BDEEE627
S1131100F0E080818260808395BB08958FB7282F9B
S11311102078F89460913202709133028091340205
S113112090913502222309F0789408951F920F922A
S11311300FB60F9211248F939F93AF93BF93809117
S1131140320290913302A0913402B091350201969B
S1131150A11DB11D8093320290933302A0933402F7
S1131160B0933502BF91AF919F918F910F900FBEB5
S11311700F901F9018951092850010928400089586
S11311801092B2000895052E97FB1EF400940E945D
S1131190DA0857FD07D00E941B0907FC03D04EF460
S11311A00C94DA0850954095309521953F4F4F4F58
S11311B05F4F089590958095709561957F4F8F4FFF
S11311C09F4F0895A29FB001B39FC001A39F700DCC
S11311D0811D1124911DB29F700D811D1124911D3B
S11311E0089597FB10F8169400080F93083098F0B0
S11311F00850232F342F452F562F672F782F892FF0
S1131200902DF4CF05949795879577956795579585
S11312104795379527950A95AAF70F9108950024C5
S1131220A7FD00942A173005400550056005700598
S1131230800590050895A1E21A2EAA1BBB1BFD018F
S11312400DC0AA1FBB1FEE1FFF1FA217B307E407A1
S1131250F50720F0A21BB30BE40BF50B661F771FF9
S1131260881F991F1A9469F76095709580959095D9
S11312709B01AC01BD01CF010895FB01DC0102C05B
S113128005900D9241505040D8F70895CF93DF93C5
S1131290EC012B8120FF33C026FF0AC02F7B2B8358
S11312A08E819F8101969F838E838A8190E029C0DD
S11312B022FF0FC0E881F9818081082E000C990B70
S11312C0009719F420622B831AC03196F983E883BE
S11312D00EC0EA85FB85099597FF09C02B8101960D
S11312E011F080E201C080E1822B8B8308C02E8143
S11312F03F812F5F3F4F3F832E83992702C08FEF9B
S11313009FEFDF91CF9108950F931F93CF93DF93B6
S1131310FB01238121FD03C08FEF9FEF2CC022FF2F
S113132016C046815781248135814217530744F4FE
S1131330A081B1819D012F5F3F4F318320838C9326
S1131340268137812F5F3F4F3783268314C08B015B
S1131350EC01FB010084F185E02D0995892BE1F670
S1131360D80116968D919C911797019617969C9388
S11313708E931697CE01DF91CF911F910F9108950F
S1131380A0E0B0E0E6ECF9E00C94490CAE01495F52
S11313905F4FDA016D917D91AD010AE413E0F8012C
S11313A082819381DC0113962C9113972860139604
S11313B02C930E94E609D8011296ED91FC911397A3
S11313C02381277F2383E4E00C94650CABE0B0E039
S11313D0ECEEF9E00C943B0C6C017B018A01FC01FE
S11313E017821682838181FFCCC1CE0101963C0114
S11313F0F6019381F70193FD859193FF81917F011C
S1131400882309F4BAC1853239F493FD859193FF99
S113141081917F01853229F4B60190E00E9484090C
S1131420E7CF912C212C312CFFE1F315D8F08B322E
S113143079F038F4803279F08332A1F4232D2061DD
S11314401DC08D3261F0803369F4232D216016C0F4
S1131450832D8260382EE32DE4603E2E2AC0F32DC6
S1131460F8601DC037FC2DC020ED280F2A3040F055
S11314708E32B9F436FC81C1232D2064322E19C07A
S113148036FE06C08AE0989E200D1124922E11C0CB
S1131490EAE02E9E200D1124222EF32DF0623F2E21
S11314A008C08C3621F4832D8068382E02C088361B
S11314B041F4F70193FD859193FF81917F0181119F
S11314C0B3CF982F9F7D9554933028F40C5F1F4F12
S11314D09FE399830DC0833631F0833771F08335F0
S11314E009F059C021C0F801808189830E5F1F4F24
S11314F088248394912C530113C02801F2E04F0EE9
S1131500511CF801A080B18036FE03C0692D70E043
S113151002C06FEF7FEFC5010E94D20B4C01820124
S1131520F32DFF773F2E16C0280122E0420E511CF6
S1131530F801A080B18036FE03C0692D70E002C0BE
S11315406FEF7FEFC5010E94C70B4C01F32DF068CC
S11315503F2E820133FC1BC0822D90E08816990631
S1131560B0F4B60180E290E00E9484092A94F4CF9A
S1131570F50137FC859137FE81915F01B60190E05A
S11315800E94840921102A9421E0821A910881146E
S1131590910471F7E8C0843611F0893641F5F801F9
S11315A037FE07C060817181828193810C5F1F4F78
S11315B008C060817181072E000C880B990B0E5FA7
S11315C01F4FF32DFF763F2E97FF09C0909580950E
S11315D0709561957F4F8F4F9F4FF0683F2E2AE0A3
S11315E030E0A3010E94DD0B882E861845C08537A4
S11315F031F4232D2F7EB22E2AE030E025C0932D26
S1131600997FB92E8F36C1F018F4883579F0B5C0BA
S1131610803719F0883721F0B0C0E92FE061BE2E81
S1131620B4FE0DC0FB2DF460BF2E09C034FE0AC009
S1131630292F2660B22E06C028E030E005C020E144
S113164030E002C020E132E0F801B7FE07C060815B
S11316507181828193810C5F1F4F06C0608171810B
S113166080E090E00E5F1F4FA3010E94DD0B882EE7
S11316708618FB2DFF773F2E36FE0DC0232D2E7FBF
S1131680A22E891458F434FE0BC032FC09C0832DF9
S11316908E7EA82E05C0B82CA32C03C0B82C01C084
S11316A0B92CA4FE0FC0FE01E80DF11D808180332A
S11316B021F49A2D997EA92E09C0A2FE06C0B394E6
S11316C0B39404C08A2D867809F0B394A3FC11C0A6
S11316D0A0FE06C0B21488F4280C922C9B180EC0ED
S11316E0B21460F4B60180E290E00E948409B394DD
S11316F0F7CFB21418F42B1802C0982C212CA4FE96
S113170010C0B60180E390E00E948409A2FE17C0D5
S1131710A1FC03C088E790E002C088E590E0B60130
S11317200CC08A2D867859F0A1FE02C08BE201C05C
S113173080E2A7FC8DE2B60190E00E94840989143E
S113174038F4B60180E390E00E9484099A94F7CFBC
S11317508A94F301E80DF11D8081B60190E00E94A6
S113176084098110F5CF222009F442CEB60180E22B
S113177090E00E9484092A94F6CFF601868197812D
S113178002C08FEF9FEF2B96E2E10C94570CFC0103
S11317900590615070400110D8F7809590958E0F98
S11317A09F1F0895FC016150704001900110D8F70B
S11317B0809590958E0F9F1F0895FA01AA272830CF
S11317C051F1203181F1E8946F936E7F6E5F7F4F0A
S11317D08F4F9F4FAF4FB1E03ED0B4E03CD0670F86
S11317E0781F891F9A1FA11D680F791F8A1F911DD9
S11317F0A11D6A0F711D811D911DA11D20D009F429
S113180068943F912AE0269F11243019305D31936A
S1131810DEF6CF010895462F4770405D4193B3E053
S11318200FD0C9F7F6CF462F4F70405D4A3318F0FA
S1131830495D31FD4052419302D0A9F7EACFB4E0AB
S1131840A6959795879577956795BA95C9F7009763
S11318506105710508959B01AC010A2E0694579504
S1131860479537952795BA95C9F7620F731F841F5B
S1131870951FA01D08952F923F924F925F926F92F1
S11318807F928F929F92AF92BF92CF92DF92EF920C
S1131890FF920F931F93CF93DF93CDB7DEB7CA1B8D
S11318A0DB0B0FB6F894DEBF0FBECDBF09942A88B8
S11318B0398848885F846E847D848C849B84AA8460
S11318C0B984C884DF80EE80FD800C811B81AA81ED
S11318D0B981CE0FD11D0FB6F894DEBF0FBECDBFB8
S10B18E0ED010895F894FFCF17
S11318E80000000300000000D00408050000000107
S11318F800010101000101010000010101010001D1
S113190804010000010400020000000004010000BA
S113191800000000000000000000000000000100BA
S113192802000000000100000200000200010100A2
S11319380000010002000000000000000000000098
S11319480000000004000000000000000000000087
S1131958000101010101010400000000000101016E
S113196800000000000001010000010101012E2F08
S10F1978292B2C2A2D3A302820170F06AA
S9030000FC
