:100000000C946C010C9489010C9489010C94890165
:100010000C9489010C94CC010C9489010C948901F5
:100020000C9489010C9489010C9489010C94DC0ACC
:100030000C9489010C9489010C9489010C94890118
:100040000C94700A0C9489010C9489010C94890118
:100050000C9469070C9427070C9489010C9489016E
:100060000C9489010C9489010C9489010C948901E8
:100070000C9489010C9489010C9489015072657368
:1000800073202772272F27522720746F20726573E1
:10009000746172742C206F72202765272F274527E3
:1000A00020746F20657869740047414D45204F5694
:1000B000455200456C61707365642074696D653AE2
:1000C00020256C7520730043535345323031302F57
:1000D000373230312050726F6A6563742062792044
:1000E000567520486169204D696E68204275692007
:1000F0002D2034373738393134300060381F3F3FD6
:10010000637EFE60BCB1B16166C3C060B63FBF61D3
:100110007CC3FE60B3B1B16166C306E0B1313F3F5D
:10012000637EFEF0F000F0F0F0F000F00000F00070
:1001300000F000F00000F00000F000F0F0F0F0003F
:10014000F0F0000000000000000000F0F0F0F0F01F
:10015000000000F0000000F0000000F0000000F0DF
:10016000000000F0F0F0F0F00000000000000000DF
:10017000000000F0F0F0F0F0F0F000000000F000FF
:100180000000000000F000F0000000F0F0000000AF
:10019000F000000000000000000000F0F0F0F0F0BF
:1001A000000000F0000000F0000000F0000000F08F
:1001B000000000F0F0F0F0F000000000000000008F
:1001C000000000F0F0F0F0F0F0F000F00000F000BF
:1001D000000000F00000F000000000F0F0F0F0007F
:1001E0000000000000000000000000F0F0F000F04F
:1001F000000000F000F000F0000000F000F000F05F
:10020000000000F0F0F0F0F000000000000000003E
:10021000000000F0F0F0F0F000000000000000F03E
:1002200000000000000000F0000000F0F0F0F0F02E
:1002300000000000000000000000000000000000BE
:100240000000003C3C3C3C3C3C00003C3C00003C92
:100250003C00003C003C3C003C00003C003C3C00BE
:100260003C00003C3C00003C3C00003C3C3C3C3C36
:100270003C00000000001000100000100000100002
:1002800010000000100000100010100000101000FE
:1002900010101000100000000010101000000000EE
:1002A000000000000000000000000000000000004E
:1002B0000000001B5B3F32356C001B5B25646D004A
:1002C0001B5B4B001B5B324A001B5B306D001B5BF2
:1002D00025643B256448000011241FBECFEFD8E001
:1002E000DEBFCDBF12E0A0E0B1E0EAE1FFE102C075
:1002F00005900D92AA36B107D9F724E0AAE6B2E03C
:1003000001C01D92A132B207E1F70E9497060C943A
:100310008B0F0C94000010926A0210926F02E8E6B4
:10032000F0E08081826080838BB382608BBBECE6DF
:10033000F0E080818F608083089580916A02882335
:10034000F9F080916B025FB75078F89491E00BC0A0
:10035000292F30E0F901E559FD4F4081F901E659B7
:10036000FD4F40839F5F20916A02921788F390911E
:100370006A02915090936A02552319F07894089577
:100380008FEF08958FB7F89410926A0210926F025F
:1003900088230CF4789408951F920F920FB60F9251
:1003A00011242F933F934F938F939F93EF93FF933A
:1003B00043B14F7080E024C090916A029430F8F409
:1003C000242F30E0082E02C0359527950A94E2F7D5
:1003D00020FF15C020916F0230E0082E02C0359535
:1003E00027950A94E2F720FD0AC0E0916A0291E0A5
:1003F0009E0F90936A02F0E0E559FD4F80838F5F76
:100400008430D0F240936F02FF91EF919F918F91D2
:100410004F913F912F910F900FBE0F901F90189505
:100420000F931F93CF93DF93082F10E0C62FD0E0D8
:10043000F801E295F295F07FFE27E07FFE27ED5868
:10044000FD4FEC0FFD1F908197709230A9F128F4B9
:10045000992351F09130E1F06AC0943009F440C022
:10046000963009F451C063C040E00E947E04BE0192
:10047000605E7F4F83E190E0801B910B0E94050A34
:1004800088E20E94340A80E290E00E94B50C4FC0DE
:100490004FEF0E947E04BE01605E7F4F83E190E0DB
:1004A000801B910B0E94050A8BE20E94340A80E2B5
:1004B00090E00E94B50C3BC04CE30E947E04BE015C
:1004C000605E7F4F83E190E0801B910B0E94050AE4
:1004D0008DE20E94340A80E290E00E94B50C27C0B1
:1004E0004FE00E947E04BE01605E7F4F83E190E09A
:1004F000801B910B0E94050A89E20E94340A80E267
:1005000090E00E94B50C13C040EF0E947E04BE0133
:10051000605E7F4F83E190E0801B910B0E94050A93
:100520008AE20E94340A80E290E00E94B50CDF91DA
:10053000CF911F910F910895CF93DF9385E0809322
:10054000720282E08093710210927002A0E027C0D4
:100550008A2F90E027E030E0281B390B462F50E02F
:10056000FC01E295F295F07FFE27E07FFE27EE5535
:10057000FE4FE40FF51F7081C90182959295907F1F
:100580009827807F98278D589D4FFC01E40FF51F19
:1005900070836F5F01C060E06031D0F2AF5FA83060
:1005A000D0F3D0E00AC06C2F8D2F0E941002CF5FD5
:1005B00001C0C0E0C031B8F3DF5FD830D0F3DF91C5
:1005C000CF910895CF93DF9386E0809372028FE0FE
:1005D0008093710210927002A0E027C08A2F90E0F1
:1005E00027E030E0281B390B462F50E0FC01E29554
:1005F000F295F07FFE27E07FFE27EE5DFE4FE40FD1
:10060000F51F7081C90182959295907F9827807F10
:1006100098278D589D4FFC01E40FF51F70836F5F85
:1006200001C060E06031D0F2AF5FA830D0F3D0E01D
:100630000AC06C2F8D2F0E941002CF5F01C0C0E056
:10064000C031B8F3DF5FD830D0F3DF91CF91089598
:100650009091700281E08927809370028823F1F0E5
:1006600040E160917102809172020E947E0460916B
:10067000710270E0605E7F4F9091720223E130E082
:10068000A901491B5109CA010E94050A8EE20E9474
:10069000340A80E290E00E94B50C089560917102E6
:1006A000809172020E9410020895BF92CF92DF9251
:1006B000EF92FF920F931F93CF93DF93709172028B
:1006C000272F280FB09071029B2D960F28301CF415
:1006D000222324F402C020E001C027E090311CF462
:1006E000992324F402C090E001C09FE0422F022E23
:1006F000000C550BA92F092E000CBB0BFA01E2953B
:10070000F295F07FFE27E07FFE27ED58FD4FEA0FC0
:10071000FB1F3081F22ED82FD20FE92EC62FC90F22
:10072000D8301CF4DD2324F402C0D0E001C0D7E0AF
:10073000C0311CF4CC2324F402C0C0E001C0CFE0DF
:100740000D2F0D2E000C110BCC2E0C2E000CDD08E5
:10075000F801E295F295F07FFE27E07FFE27ED5845
:10076000FD4FEC0DFD1D80813130C9F460E270E079
:1007700085E090E00E94050A0E942B0A0E94F40B7B
:1007800063E070E00E94060BFC01EE0FFF1FEC5FC0
:10079000FE4F808191810E94BC0C80E070C032309D
:1007A00019F0363009F059C0813009F463C0823045
:1007B00009F462C0863009F461C0843071F4029596
:1007C0001295107F1027007F10270D581D4FF8013C
:1007D000EC0DFD1D86E080830DC002951295107F03
:1007E0001027007F10270D581D4FF801EC0DFD1D3F
:1007F00082E08083363069F442955295507F5427C9
:10080000407F54274D585D4FA40FB51F84E08C9353
:1008100024C042955295507F5427407F54274D580D
:100820005D4FA40FB51F1C926B2D872F0E941002E5
:1008300081E0809370020E942803F0927202E0929D
:1008400071026E2D8F2D0E9410026C2F8D2F0E9431
:1008500010020E94280381E012C081E080937002A0
:100860000E942803F0927202E09271020E94280313
:1008700081E005C080E003C080E001C080E0DF913E
:10088000CF911F910F91FF90EF90DF90CF90BF908D
:10089000089540E050E017C0FA01E295F295F07F2C
:1008A000FE27E07FFE27ED58FD4FE80FF91F20815E
:1008B000243071F0019602C080E090E08031910513
:1008C0005CF34F5F5F4F48305105B4F381E008950A
:1008D00080E00895809172026091710290E1899F99
:1008E000F0011124ED58FD4FE60FF11D10820E941A
:1008F0001002089580E80E940F0808951F93CF9377
:10090000DF936031B0F48830A0F4142FD62FC82FB5
:1009100081E00E943B088C2F877020E1829FC001FC
:1009200011246D2F6F70862B0E943B08812F0E942F
:100930003B08DF91CF911F9108950F931F93CF93A1
:100940008031A0F48B01C82F83E00E943B088C2FDC
:100950008F700E943B08C0E007C0F801EC0FF11D4A
:1009600080810E943B08CF5FC830B8F3CF911F91C0
:100970000F91089584E00E943B0882E00E943B08AA
:1009800008958FE00E943B0808950E947A040E9417
:100990008B0140E060E07BE480E090E00E94BC07D7
:1009A0000E944A0A0E94950A0E94A50A7894089516
:1009B0000E94410A0E94220A0E94E2020E94C20191
:1009C0000E940A0808950E94410A0E94220A0E9479
:1009D0009C020E94C2010E940A0808954F925F92F1
:1009E0006F927F928F929F92AF92BF92CF92DF923F
:1009F000EF92FF92CF93DF9300D000D01F92CDB73C
:100A0000DEB70E94600A4B015C010E94600A2B0164
:100A10003C010E940308882391F080911B0490916F
:100A20001C040E94150C8037910519F08035910542
:100A300031F49091F30281E089278093F3021982C7
:100A40001A821B821C82C7C00E949D018D83811166
:100A500009C061E00E945503882321F00E94600ACA
:100A60004B015C018D81813051F460E08FEF0E9479
:100A70005503882321F00E94600A4B015C019D818F
:100A8000923051F460E081E00E945503882321F008
:100A90000E94600A4B015C01AD81A33051F46FEFFD
:100AA00080E00E945503882321F00E94600A4B01D8
:100AB0005C010E940308882309F449C080911B044B
:100AC00090911C040E94150C8337910519F0833511
:100AD000910559F460E08FEF0E9455038823B9F126
:100AE0000E94600A4B015C0132C08737910519F002
:100AF0008735910559F460E081E00E945503882311
:100B000031F10E94600A4B015C0121C081369105E0
:100B100019F08134910559F46FEF80E00E9455037C
:100B20008823A9F00E94600A4B015C0110C0843642
:100B3000910519F08434910551F461E080E00E9440
:100B40005503882321F00E94600A4B015C010E943A
:100B5000600A6B017C01D501C40188539F4FAF4FE0
:100B6000BF4FC816D906EA06FB0620F00E942803EC
:100B700046015701C701B60164197509860997092D
:100B800028EE33E040E050E00E941A0B69017A0140
:100B900089819A81AB81BC8182179307A407B5072D
:100BA000D1F060E270E088E090E00E94050AFF92D8
:100BB000EF92DF92CF9283EB90E09F938F930E940E
:100BC0008F0C0F900F900F900F900F900F90C98285
:100BD000DA82EB82FC820E944904811105C0809177
:100BE000F302882309F430CF0E946A040F900F901B
:100BF0000F900F900F90DF91CF91FF90EF90DF90CB
:100C0000CF90BF90AF909F908F907F906F905F90AC
:100C10004F900895CCE0D0E008C060E270E0CE01D3
:100C20000E94050A0E942B0A2196C132D105ACF31D
:100C30006AE070E08EE090E00E94050A89EA90E0A8
:100C40009F938F930E948F0C6AE070E08FE090E09A
:100C50000E94050A8CE790E09F938F930E948F0C6F
:100C60000F900F900F900F900E940308882339F087
:100C700080911B0490911C040E94150C02C08FEF00
:100C80009FEF0E94040CEC018235910531F40E9423
:100C9000E3040E94EE040E940A068534910511F4D3
:100CA0000E949706CE34D105F9F60E94D8040E941E
:100CB000EE040E940A060E94410A0E94190A0E943C
:100CC000220A65E083E00E94DF0965E070E08BE0C6
:100CD00090E00E94050A87EC90E09F938F930E941A
:100CE0008F0C0E942A090E94C2010F900F900E944F
:100CF0009D018F3FD9F40E9403088823A1F08091C1
:100D00001B0490911C040E94150C8337910571F00F
:100D10008335910559F0C29731F40E94D8040E949E
:100D2000EE040E940A060E943409E1CF08950E9451
:100D3000C5040E945B060E94E3040E94EE040E9428
:100D40000A06CF93C82F8A3019F48DE00E94A106BD
:100D50009FB7907802C0992329F1809108038F3FB3
:100D6000D1F3F894E091070381E08E0F809307039D
:100D7000F0E0E75FFC4FC083809108038F5F8093B2
:100D80000803809107038F3F11F410920703E1ECF1
:100D9000F0E0808180628083992339F0789480E04C
:100DA00090E005C081E090E002C080E090E0CF914B
:100DB000089580911A048823E1F32FB72078F894DE
:100DC0008091080430911A0490E0831B91095AF431
:100DD000E091080480911A04F0E0E81BF109E75E55
:100DE000FB4F80810AC0E091080480911A04F0E072
:100DF000E81BF109E75FFB4F808190911A04915045
:100E000090931A04222309F078949091F5029B3173
:100E1000B1F49091F4029B3591F4823449F018F4C6
:100E2000813461F00CC0833429F0843429F007C088
:100E300083E705C084E603C081E601C087E790919F
:100E4000F4029093F5028093F40290E008951F92CB
:100E50000F920FB60F9211242F938F939F93EF93BE
:100E6000FF9380910803882329F180910703209143
:100E7000080390E0821B91095AF4E09107038091E6
:100E80000803F0E0E81BF109E85FFB4F90810AC01E
:100E9000E091070380910803F0E0E81BF109E75FA8
:100EA000FC4F9081809108038150809308039093B8
:100EB000C60005C0E1ECF0E080818F7D8083FF916A
:100EC000EF919F918F912F910F900FBE0F901F90D8
:100ED00018951F920F920FB60F9211242F933F93E4
:100EE0004F935F936F937F938F939F93AF93BF9332
:100EF000CF93EF93FF93C091C6008091F6028823B1
:100F000049F0809108038F3F29F060E070E08C2F5A
:100F10000E94A10680911A04803120F081E0809324
:100F2000190418C0CD3009F4CAE0E091080481E04A
:100F30008E0F80930804F0E0E75FFB4FC083809141
:100F40001A048F5F80931A0480910804803111F491
:100F500010920804FF91EF91CF91BF91AF919F91B3
:100F60008F917F916F915F914F913F912F910F9052
:100F70000FBE0F901F901895109207031092080350
:100F80001092080410921A04109219044093F60269
:100F9000DC01CB01880F991FAA1FBB1F880F991F67
:100FA000AA1FBB1F9C01AD01220F331F441F551FF9
:100FB00060E072E18AE790E00E943C0BBA01A9016F
:100FC0004F5F5F4F6F4F7F4FDB01CA011AF40196ED
:100FD000A11DB11DB595A7959795879501979093FC
:100FE000C5008093C400E1ECF0E088E1808380815B
:100FF00080688083EBE1F4E08AE091E09383828370
:1010000091838083089590911A0481E0911101C029
:1010100080E008951092080410921A04089594B183
:10102000906B94B995B1906195B990E59CBD88306D
:1010300021F0803211F0823019F491E09DBD01C0A1
:101040001DBC803269F028F4883071F0803161F085
:101050000EC0803429F0803851F48CB581608CBD8D
:101060008CB582608CBD03C08CB581608CBD85B1B0
:101070008F7E85B908958EBD0DB407FEFDCF8EB568
:1010800008951F93CF93DF93CDB7DEB728970FB6A0
:10109000F894DEBF0FBECDBF10E017C0612F70E027
:1010A000660F771F660F771F660F771F6D5D7E4F88
:1010B00048E050E0CE0101960E940C0CBE016F5F2B
:1010C0007F4F812F0E949D041F5F103138F32896B7
:1010D0000FB6F894DEBF0FBECDBFDF91CF911F9149
:1010E0000895CF93DF93CDB7DEB728970FB6F89466
:1010F000DEBF0FBECDBF0E94BA046091F70270E060
:10110000660F771F660F771F660F771F6D5D7E4F27
:1011100048E050E0CE0101960E940C0CBE016F5FCA
:101120007F4F8FE00E949D044091F70250E04F5F97
:101130005F4F9A0136952795ABE7B4E10E945B0BB0
:101140009695879562E3689F9001699F300D112401
:10115000CA01821B930B8093F702803129F480919E
:10116000000381608093000328960FB6F894DEBFD9
:101170000FBECDBFDF91CF910895EF92FF920F93F5
:101180001F93CF93DF93CDB7DEB728970FB6F894B0
:10119000DEBF0FBECDBFF62EE42E682F70E0660FC7
:1011A000771F660F771F660F771F65507F4F48E0E8
:1011B00050E0CE0101960E940C0C0FE310E00F19D5
:1011C000110929813A814B815C816D817E818F81FA
:1011D00098850E946C0B217030E040E050E060E0A8
:1011E00070E080E090E0A0E00E94880BC1F0E11088
:1011F0001BC010E00FC0812F90E0FC01ED59FD4FA6
:1012000020812F1530F0FC01E45AFD4F80810E94AF
:10121000340A1F5F173078F3EE24E39405C0EE2004
:1012200019F00E94190AE12C60911D0470911E04AE
:1012300080E290E00E94530C8E2D28960FB6F89411
:10124000DEBF0FBECDBFDF91CF911F910F91FF90F9
:10125000EF9008950E94C1040E944108809100030C
:101260008160809300030895CF92DF92EF92FF9206
:101270000E94600A6B017C018091000380FF16C010
:10128000C092FC02D092FD02E092FE02F092FF02B8
:10129000C092F802D092F902E092FA02F092FB02B8
:1012A00090E19093F702887F809300038091F7028A
:1012B000803109F064C08091FC029091FD02A09100
:1012C000FE02B091FF02AC01BD014053584F6F4F79
:1012D0007F4F4C155D056E057F0558F40E9471081F
:1012E000C092F802D092F902E092FA02F092FB0268
:1012F00061C020910003322F327021FD19C0885146
:101300009C4FAF4FBF4F8C159D05AE05BF0580F4B8
:101310000E94410880910003826080930003C09284
:10132000F802D092F902E092FA02F092FB0242C077
:10133000311140C08091F8029091F902A091FA0217
:10134000B091FB028C599F4FAF4FBF4F8C159D053D
:10135000AE05BF0578F584E028272093000322FF1F
:1013600003C00E94C10402C00E944108C092F8025A
:10137000D092F902E092FA02F092FB021BC0809137
:10138000F8029091F902A091FA02B091FB02885301
:101390009F4FAF4FBF4F8C159D05AE05BF0550F455
:1013A0000E947108C092F802D092F902E092FA020B
:1013B000F092FB02FF90EF90DF90CF900895FF92A4
:1013C0000F931F93CF93DF93F82E062F10E0D0E0FA
:1013D00014C0602F70E08F2D90E0810F911D0E944E
:1013E000050AC0E007C04D2F6C2F812F0E94BD0859
:1013F000D82FCF5FC034B8F31F5F153050F3DF91A3
:10140000CF911F910F91FF9008956F5F7F4F7F9352
:101410006F9301969F938F938EEC92E09F938F939F
:101420000E948F0C0F900F900F900F900F900F90C5
:10143000089589EC92E09F938F930E948F0C0F90F8
:101440000F90089584EC92E09F938F930E948F0CED
:101450000F900F90089580EC92E09F938F930E94DD
:101460008F0C0F900F9008951F928F938AEB92E04C
:101470009F938F930E948F0C0F900F900F900F905F
:10148000089583EB92E09F938F930E948F0C0F90AF
:101490000F9008951092010310920203109203031B
:1014A0001092040316BC8CE787BD92E094BD83E0E4
:1014B00085BDEEE6F0E080818260808395BB089573
:1014C0008FB7282F2078F894609101037091020360
:1014D0008091030390910403222309F078940895E6
:1014E0001F920F920FB60F9211248F939F93AF9379
:1014F000BF938091010390910203A0910303B091E7
:1015000004030196A11DB11D809301039093020372
:10151000A0930303B0930403BF91AF919F918F9168
:101520000F900FBE0F901F9018951092850010928B
:10153000840008958091060390E0019664E670E0CF
:101540000E94060B8093060308951092B2008FEF5D
:1015500081B981E087B90E949A0A089580910503B4
:10156000811115C0E09106038DECE89F812D1124B7
:10157000869586958695880F982F990F990F890FD4
:10158000E81BF0E0E85EFE4F808182B911C08091D7
:101590000603EDEC8E9FE12D1124E695E695E69588
:1015A00029F0F0E0E85EFE4F808101C080E082B962
:1015B0008091050388B908951F920F920FB60F927C
:1015C00011242F933F934F935F936F937F938F9348
:1015D0009F93AF93BF93EF93FF939091050381E0A7
:1015E0008927809305030E94AE0AFF91EF91BF9176
:1015F000AF919F918F917F916F915F914F913F91AB
:101600002F910F900FBE0F901F90189597FB072EEC
:1016100016F4009407D077FD09D00E94940B07FCC4
:1016200005D03EF4909581959F4F089570956195F2
:101630007F4F0895A1E21A2EAA1BBB1BFD010DC00E
:10164000AA1FBB1FEE1FFF1FA217B307E407F50772
:1016500020F0A21BB30BE40BF50B661F771F881F4E
:10166000991F1A9469F760957095809590959B01E4
:10167000AC01BD01CF010895052E97FB1EF4009427
:101680000E94530B57FD07D00E941A0B07FC03D092
:101690004EF40C94530B50954095309521953F4F47
:1016A0004F4F5F4F089590958095709561957F4F4E
:1016B0008F4F9F4F0895A29FB001B39FC001A39F7A
:1016C000700D811D1124911DB29F700D811D11247B
:1016D000911D089597FB10F8169400080F93083099
:1016E00098F00850232F342F452F562F672F782F2F
:1016F000892F902DF4CF05949795879577956795C9
:1017000057954795379527950A95AAF70F9108950C
:101710000024A7FD00942A173005400550056005F8
:101720007005800590050895AA1BBB1B51E107C0F9
:10173000AA1FBB1FA617B70710F0A61BB70B881F61
:10174000991F5A95A9F780959095BC01CD010895F0
:101750008F929F92AF92BF92CF92DF92EF92FF92C1
:10176000CF93DF93EC01688179818A819B81611538
:1017700071058105910521F464E279ED8BE597E02F
:101780002DE133EF41E050E00E943C0B49015A014A
:101790009B01AC01A7EAB1E40E94410F6B017C01FF
:1017A000ACEEB4EFA50194010E944F0FDC01CB0118
:1017B0008C0D9D1DAE1DBF1DB7FF03C00197A10974
:1017C000B04888839983AA83BB839F77DF91CF91A9
:1017D000FF90EF90DF90CF90BF90AF909F908F9051
:1017E00008950E94A80B089580E091E00E94A80B44
:1017F0000895A0E0B0E08093000190930101A093D0
:101800000201B093030108959111089581568A5100
:1018100008F4805285580895FB01DC0102C0059050
:101820000D9241505040D8F70895CF93DF93EC01CB
:101830002B8120FF33C026FF0AC02F7B2B838E8194
:101840009F8101969F838E838A8190E029C022FF29
:101850000FC0E881F9818081082E000C990B009758
:1018600019F420622B831AC03196F983E8830EC0E5
:10187000EA85FB85099597FF09C02B81019611F038
:1018800080E201C080E1822B8B8308C02E813F81E2
:101890002F5F3F4F3F832E83992702C08FEF9FEF2B
:1018A000DF91CF9108950F931F93CF93DF93FB01A7
:1018B000238121FD03C08FEF9FEF2CC022FF16C0B4
:1018C00046815781248135814217530744F4A08112
:1018D000B1819D012F5F3F4F318320838C932681FF
:1018E00037812F5F3F4F3783268314C08B01EC0174
:1018F000FB010084F185E02D0995892BE1F6D801E3
:1019000016968D919C911797019617969C938E939E
:101910001697CE01DF91CF911F910F910895A0E00E
:10192000B0E0E5E9FCE00C94620FAE01495F5F4F67
:10193000DA016D917D91AD010BE114E0F801828136
:101940009381DC0113962C911397286013962C93A6
:101950000E94EC0CD8011296ED91FC911397238113
:10196000277F2383E4E00C947E0F60911D04709127
:101970001E040E94530C08950F931F93CF93DF937F
:10198000E0911D04F0911E04238121FF1BC08C01F6
:10199000D0E0C0E0F80181918F0160911D04709149
:1019A0001E04DB011896ED91FC911997882331F004
:1019B0000995892B79F3DFEFCFEFECCF8AE009951A
:1019C000892B19F08FEF9FEF02C08D2F9C2FDF9195
:1019D000CF911F910F910895ABE0B0E0E2EFFCE0F2
:1019E0000C94540F6C017B018A01FC011782168252
:1019F000838181FFCCC1CE0101963C01F601938128
:101A0000F70193FD859193FF81917F01882309F46C
:101A1000BAC1853239F493FD859193FF81917F019D
:101A2000853229F4B60190E00E94530CE7CF912C47
:101A3000212C312CFFE1F315D8F08B3279F038F4FA
:101A4000803279F08332A1F4232D20611DC08D32C4
:101A500061F0803369F4232D216016C0832D8260EC
:101A6000382EE32DE4603E2E2AC0F32DF8601DC011
:101A700037FC2DC020ED280F2A3040F08E32B9F40B
:101A800036FC81C1232D2064322E19C036FE06C0DB
:101A90008AE0989E200D1124922E11C0EAE02E9E1D
:101AA000200D1124222EF32DF0623F2E08C08C361B
:101AB00021F4832D8068382E02C0883641F4F70166
:101AC00093FD859193FF81917F018111B3CF982F71
:101AD0009F7D9554933028F40C5F1F4F9FE39983AB
:101AE0000DC0833631F0833771F0833509F059C06A
:101AF00021C0F801808189830E5F1F4F8824839461
:101B0000912C530113C02801F2E04F0E511CF80133
:101B1000A080B18036FE03C0692D70E002C06FEF77
:101B20007FEFC5010E94D80E4C018201F32DFF7793
:101B30003F2E16C0280122E0420E511CF801A08061
:101B4000B18036FE03C0692D70E002C06FEF7FEFF9
:101B5000C5010E94CD0E4C01F32DF0683F2E82018D
:101B600033FC1BC0822D90E088169906B0F4B601B4
:101B700080E290E00E94530C2A94F4CFF50137FCE8
:101B8000859137FE81915F01B60190E00E94530C70
:101B900021102A9421E0821A91088114910471F78E
:101BA000E8C0843611F0893641F5F80137FE07C0E8
:101BB00060817181828193810C5F1F4F08C06081B9
:101BC0007181072E000C880B990B0E5F1F4FF32DB0
:101BD000FF763F2E97FF09C090958095709561958F
:101BE0007F4F8F4F9F4FF0683F2E2AE030E0A301D8
:101BF0000E94E30E882E861845C0853731F4232DC8
:101C00002F7EB22E2AE030E025C0932D997FB92E89
:101C10008F36C1F018F4883579F0B5C0803719F0E7
:101C2000883721F0B0C0E92FE061BE2EB4FE0DC0B0
:101C3000FB2DF460BF2E09C034FE0AC0292F266098
:101C4000B22E06C028E030E005C020E130E002C03E
:101C500020E132E0F801B7FE07C060817181828126
:101C600093810C5F1F4F06C06081718180E090E01E
:101C70000E5F1F4FA3010E94E30E882E8618FB2DD6
:101C8000FF773F2E36FE0DC0232D2E7FA22E891406
:101C900058F434FE0BC032FC09C0832D8E7EA82E72
:101CA00005C0B82CA32C03C0B82C01C0B92CA4FECD
:101CB0000FC0FE01E80DF11D8081803321F49A2DC3
:101CC000997EA92E09C0A2FE06C0B394B39404C0A5
:101CD0008A2D867809F0B394A3FC11C0A0FE06C03B
:101CE000B21488F4280C922C9B180EC0B21460F425
:101CF000B60180E290E00E94530CB394F7CFB21487
:101D000018F42B1802C0982C212CA4FE10C0B60188
:101D100080E390E00E94530CA2FE17C0A1FC03C018
:101D200088E790E002C088E590E0B6010CC08A2DFB
:101D3000867859F0A1FE02C08BE201C080E2A7FCC8
:101D40008DE2B60190E00E94530C891438F4B6017C
:101D500080E390E00E94530C9A94F7CF8A94F301A9
:101D6000E80DF11D8081B60190E00E94530C8110B6
:101D7000F5CF222009F442CEB60180E290E00E9425
:101D8000530C2A94F6CFF6018681978102C08FEF1B
:101D90009FEF2B96E2E10C94700FFC0105906150CF
:101DA00070400110D8F7809590958E0F9F1F089571
:101DB000FC016150704001900110D8F7809590951A
:101DC0008E0F9F1F0895FA01AA27283051F1203164
:101DD00081F1E8946F936E7F6E5F7F4F8F4F9F4FBF
:101DE000AF4FB1E03ED0B4E03CD0670F781F891F01
:101DF0009A1FA11D680F791F8A1F911DA11D6A0FCF
:101E0000711D811D911DA11D20D009F468943F9181
:101E10002AE0269F11243019305D3193DEF6CF0180
:101E20000895462F4770405D4193B3E00FD0C9F746
:101E3000F6CF462F4F70405D4A3318F0495D31FDB3
:101E40004052419302D0A9F7EACFB4E0A695979506
:101E5000879577956795BA95C9F7009761057105DC
:101E600008959B01AC010A2E069457954795379526
:101E70002795BA95C9F7620F731F841F951FA01D80
:101E800008950E945B0BA59F900DB49F900DA49F99
:101E9000800D911D11240895B7FF0C94410F0E94ED
:101EA000410F821B930B08952F923F924F925F92A6
:101EB0006F927F928F929F92AF92BF92CF92DF925A
:101EC000EF92FF920F931F93CF93DF93CDB7DEB7BF
:101ED000CA1BDB0B0FB6F894DEBF0FBECDBF099453
:101EE0002A88398848885F846E847D848C849B84AA
:101EF000AA84B984C884DF80EE80FD800C811B81B8
:101F0000AA81B981CE0FD11D0FB6F894DEBF0FBEE6
:0A1F1000CDBFED010895F894FFCF56
:101F1A0001000000220235024F0200000003000007
:101F2A000000A106D90600003F065B4F666D7D07DB
:101F3A007F6F0000010101010000010100000000A3
:101F4A000001000001000001000101000000000280
:101F5A000000000001000201010100000401000468
:101F6A00010100000100000000040000020101015B
:101F7A000000010101010001000000000001000150
:101F8A00010001040200000000020000000101003B
:101F9A00010101000000040000000000000204002A
:101FAA000000010101010101010101010101010119
:101FBA00010100010001010100010101000001010C
:101FCA0001010001040100000104000200000000F8
:101FDA0004010000000000000000000000000000F2
:101FEA0000000100020000000001000002000002DF
:101FFA0000010100000001000200000000000000D2
:10200A0000000000000000000400000000000000C2
:10201A0000000000000101010101010400000000AC
:10202A00000101010000000000000101000001019F
:10203A0001014927766520686974207468652077EC
:10204A00616C6C2E00492776652062756D70656437
:10205A0020696E746F207468652077616C6C004F1C
:10206A007563682120412077616C6C002E2F292B23
:0A207A002C2A2D3A302820170F06FB
:00000001FF
